:020000040010EA
:10000000280A0020D5001000DD001000DF001000DD
:1000100000000000000000000000000000000000E0
:10002000000000000000000000000000E1001000DF
:100030000000000000000000E3001000E5001000D8
:10004000E7001000E7001000210B1000E70010008F
:10005000E700100025041000E7001000E700100082
:10006000E7001000E7001000E7001000E7001000B4
:10007000E7001000E7001000E7001000E7001000A4
:10008000E7001000E7001000E7001000E700100094
:10009000E7001000E7001000E7001000E700100084
:1000A000E7001000E7001000E7001000E700100074
:1000B000E7001000E7001000E7001000E700100064
:1000C0000348854600F014F800480047F50C10007E
:1000D000280A00200448804704480047FEE7FEE75E
:1000E000FEE7FEE7FEE7FEE7250A1000C10010006C
:1000F000064C0125064E05E0E36807CC2B430C3C7B
:1001000098471034B442F7D3FFF7DEFFB00D10006C
:10011000D00D1000F8B527483B21028989028A4298
:1001200006D2C088801E81B2234800F037FBF8BD9C
:100130003B2080028242FAD10021204A1E4D08460F
:100140002B5C401C591880B2C9B29042F8D31C48AD
:10015000C07F884229D10126194F0024760220371A
:1001600014E0174A60022032314600F061F80022A4
:1001700010463B5C401C991880B2CAB2B042F8D31A
:1001800028194079904210D1641CE4B22879A04229
:10019000E7D808483B22C0889202801E81B20648F8
:1001A00000F0FCFA00F0F4F8F8BD7721002000F030
:1001B00009F8F8BD0600002014020020FF0100002D
:1001C000F403002070B5064600200D46044605E005
:1001D0006002801900F006F8641CE4B2AC42F7D368
:1001E00070BD000010B5044600F00CFC0F49002261
:1001F0000869C007FCD18B69402003438B6122232F
:10020000CB60A218920892004A6001220A6100BFE6
:100210000A69D207FCD18A69520604D58A69024369
:100220008A61012010BD002010BD000000C00050F8
:10023000F8B50C460546009200F0E4FB174800268E
:10024000E41C174B04401869C007FCD19869402191
:100250000843986100201DE00021D960AF19BF0854
:10026000BF005F6099600121196100BF1969C9076A
:10027000FCD19969490604D59869402108439861E1
:100280000AE099688200009F401C241FB95080B288
:10029000A4B22D1D002CDFD12846F8BDFCFF0000C4
:1002A00000C0005010B5044600F0ACFB08490868D7
:1002B000042290430860086802229043086008689E
:1002C000620010430860002000F0CAFB10BD00006F
:1002D00000C00050F8B515460C46064600F092FBEB
:1002E00015490020E41C154B0C401969C907FCD1C5
:1002F0009A6940210A439A61012718E02122DA60B5
:100300003218920892005A602A689A601F6100BFF2
:100310001A69D207FCD19A69520604D59869084334
:1003200098610120F8BD241F2D1DA4B2361D002C9C
:10033000E4D10020F8BD0000FCFF000000C0005028
:10034000F0B500220B4B01240546D540ED0707D040
:100350001E68012909D057002546BD40AE431E60E6
:10036000521CD2B20D2AEFD3F0BD57002546BD4036
:100370002E43F4E700400050044B9A68002901D056
:10038000024300E082439A60704700000040005042
:10039000F8B53B201F4A04218002FFF749FF1E4D9C
:1003A000FF206870A87000261A4C6E71A178012792
:1003B0004140A170E2784240E2702078884205D145
:1003C0006178914202D16870A97012E00121134A4C
:1003D00049020020FFF72CFF2078FF280DD160781C
:1003E000FF280AD10E4B00200C4A591C145CFF2C2C
:1003F00004D06F71002000F0BBFBF8BD984204D11F
:100400006E71002000F0A4FBF8BD401C80B2884251
:10041000ECD3F8BD000000200600002014000020EE
:10042000FF010000FEB50024012000F0F7F8474D61
:10043000474E01280AD100F0A3F82888022801D2EB
:10044000444830800020444928800870032000F090
:10045000E5F80127012804D1032000F091F83E4877
:100460000770022000F0DAF8012820D1022000F005
:1004700087F800F0CDF82988384A022901D2505473
:1004800005E0374B5B18203B987736480770491CCE
:1004900088B235492880884201D3298007E00228A4
:1004A00005D1507811780002084340BA3080052009
:1004B00000F0B4F8012847D1052000F061F8308839
:1004C000244A6E46904206D1FF203055641CA4B2E7
:1004D000042CFAD331E02549884211D8298801AA91
:1004E00040180421FFF7A4FE6846017901704179A4
:1004F000417081798170C179C1702888001D288080
:1005000013480F2100880903884205D1B0213155D5
:10051000641CA4B2042CFAD3154988420DD16A4652
:1005200004211448FFF784FE1348017868460170DF
:10053000124801786846417087700421684600F0CF
:10054000C1F8084900200870FEBD00000C00002022
:100550000E000020F1F10000090000201406002028
:10056000140200200A00002001020000FFEF00003A
:10057000FFFF0000FCED0000070000200800002045
:100580000B490B4A4039042810D005DC01280BD058
:10059000032800D1086A7047052803D00F28FAD134
:1005A000106B704708697047486A7047906A7047D7
:1005B000800002400248C16A01221143C1627047B3
:1005C00040000240014900200863704700000240DB
:1005D00000B50E49030000F057FB06170A070E127C
:1005E0000417086B20220DE0086B04220AE0086B58
:1005F0000122920206E0086B0122520202E0086B1F
:10060000012212031043086300BD000000000240F5
:1006100001480069C0B27047000002400246002055
:100620001149042A1DD008DC012A17D0022A12D051
:10063000032A0AD1C96A89050AE0052A06D00F2AC9
:1006400003D1C96A090403E001207047C96A890619
:100650000029F9DB7047C96A4907F9E7C96A490502
:10066000F6E7C96AC904F3E70000024010B514496F
:10067000CA6A52085200CA621149027840398A6037
:1006800000220A600A6880231A430A60447808221C
:100690000123082C01D9427002E0002C00D14370E4
:1006A0004478641E8C638478082C01D9827002E03F
:1006B000002C00D183708078401EC86310BD0000FC
:1006C0004000024010B5064A5269054B0022403BEB
:1006D00003E0845C1C61521CD2B28A42F9D310BD83
:1006E00040000240F8B5294C0027E07800284CD0A3
:1006F0002079002849D0264800260670304600F0B0
:1007000027FA2089002839D1E088062836D1214DE2
:100710002878AA2816D1687855282FD1A878A52836
:100720002CD1E8785A2829D177210020FFF74AFDFB
:10073000002803D101210802FFF71EFE01271649F8
:1007400027700F7028787E2816D16878E72813D193
:10075000A878EE2810D1E87877280DD160790028A4
:100760000AD0FF2000210130FFF706FE0A4806707C
:100770000020FFF797FD06E0002F04D12078012824
:1007800001D1FFF7C7FCE6702671F8BD0600002016
:1007900010000020140200200400002070B506465E
:1007A000012040020C461546814200D904461046FD
:1007B000FFF718FD324621462846FFF78BFD70BD36
:1007C000032900D903211B4A102824D00CDC01285E
:1007D00018D0022819D004281AD0082803D110688C
:1007E0008907084310607047202817D0402818D088
:1007F000802819D0FF380128F5D190688901084375
:100800009060704710688901EBE710688903E8E79A
:1008100010688905E5E75068890107E05068890399
:1008200004E05068890501E050688907084350607A
:100830007047000000E400E030B50022064B0124C0
:1008400021469140014202D01D680D431D60521C9B
:10085000D2B2092AF4D330BD00E100E070B5002225
:100860000A4B01240546D540ED0706D05E680129F4
:10087000254607D09540AE435E60521CD2B2052A91
:10088000F0D370BD95402E43F6E7000000280050DD
:1008900070B50D46044600F0B5F800230948012163
:1008A0000A469A40224204D08668012D08D0964319
:1008B00086605B1CDBB2202BF2D300F0ADF870BD7C
:1008C0001643F5E700280050024600200C49012A93
:1008D00009D0022A0CD0032A0FD0042A02D1C968F9
:1008E000090603D57047C968C90603E001207047AF
:1008F000C96809070029F9DB7047C9684907F9E7A2
:1009000000280050034AD169090909010143D16156
:10091000704700000028005070B50D46044600F0F6
:1009200071F8032C12D0042C0ED00722084C206939
:10093000F82108401043206100F06EF8E0690009DA
:1009400000012843E06170BD0222EFE70322EDE7DA
:100950000028005070B50D46044600F053F80023FF
:10096000094801210A469A40224204D00668012D16
:1009700008D0964306605B1CDBB2052BF2D300F077
:100980004BF870BD1643F5E700280050012800D150
:100990000020044AD169F023994300010843D06143
:1009A000704700000028005010B5044600F02AF8F7
:1009B000072C0BD0082C0BD02820064A11694907B8
:1009C000490F0143116100F027F810BD1820F4E72A
:1009D0003820F2E700280050012804D0022804D073
:1009E000032805D103E0022102E0032100E00721F2
:1009F000034A5069F02318400843506170470000D3
:100A00000028005003485921016016210160882107
:100A100001607047000100500149002008607047E4
:100A20000001005010B501210C20FFF793FF0020BA
:100A3000FFF7ACFF0020FFF765FF0120FFF744FF41
:100A40000028FAD00220FFF73FFF0028FAD000214B
:100A50000220FFF761FF0820FFF7A6FF10BD00008E
:100A600000B50246FFF7CEFF0A49002A04D0012A4A
:100A700005D0022A07D10AE04868042201E048684C
:100A800002221043486004490020086000BD486805
:100A90000122F6E7002400500001005010B50524A3
:100AA00024076268030000F0EFF80604080C1F2C0E
:100AB00031361020012930D02CE0402002292CD0E2
:100AC00028E0052907D00123DB045810022905D0AE
:100AD000032905D006E0032080041EE01A4319E034
:100AE0009A431AE09A4315E0062907D001235B05D3
:100AF00058100129F2D00429F4D1F1E703200005B0
:100B00000BE001208005082907D003E00120000642
:100B1000072902D08243626010BD0243FBE7000058
:100B200010B5002000F006F801490120087010BD42
:100B3000100000200121002804D0034882680A43E5
:100B4000826070470148F9E7002001400000014041
:100B500001218907002804D0034802688A43026003
:100B600070470248F9E70000002001400000014002
:100B700001218907002804D0034802680A43026063
:100B800070470248F9E700000020014000000140E2
:100B90000A780023012A00D120234A78D2001A4380
:100BA00013028A7812011A431304CA781A430028E0
:100BB00004D0034802604968416070470148F9E782
:100BC000002001400000014010B501210220FFF784
:100BD00045FEFFF717FF0948016801221143016034
:100BE0000168120211430160016880221143016013
:100BF000016808221143016010BD000000C00050D0
:100C000008B501210846FFF729FE01210802FFF778
:100C10003FFE2020FFF710FE00212020FFF7D0FD2F
:100C200004210320FFF73AFF03210220FFF736FFDC
:100C3000FFF7C8FC0520FFF7CBFC0220FFF7C8FC3C
:100C40000120FFF7C5FC0320FFF7C2FC50216846D6
:100C500001700121417008218170FFF707FDFFF746
:100C6000A9FC05490020088004490880044908704F
:100C70000449087008BD00000E0000200C00002090
:100C80000A0000200900002030B47446641E257854
:100C9000641CAB4200D21D46635D5B00E31830BCB0
:100CA000184702E008C8121F08C1002AFAD170478D
:100CB0007047002001E001C1121F002AFBD17047DC
:100CC00070B50124772564026D02094A2146284641
:100CD000FFF7AEFA06480121603001702846FFF7A1
:100CE00081FA034A21462846FFF7F4FA70BD000056
:100CF00014000020FFF784FF00F03EF8FFF764FFC8
:100D0000194E0020194C3070207001210846FFF761
:100D1000A5FD01210D022846FFF712FB0021284600
:100D2000FFF72AFBFFF734FB114F3078002802D081
:100D30002078002802D0FFF7D5FCF6E700212846EE
:100D4000FFF71AFB0A4A04210A48FFF771FA3878BC
:100D5000012802D10020FFF7A5FAFFF7B1FF00201C
:100D6000FFF7A0FAE1E700001000002004000020D7
:100D70001400002060EE00001CB50420FFF75CFDAD
:100D800001210420FFF71CFD01210804FFF780FD6D
:100D90000320FFF721FE01206946487008700920F2
:100DA000C870642001900020FFF7F2FE1CBD000017
:100DB000D00D10000000002014000000A20C100054
:100DC000E40D100014000020140A0000B20C100002
:100DD0000000000000000000000000000000000013
:040DE000000000000F
:020000040030CA
:080000003EFFFFE700EEFFFFE9
:04000005001000C126
:00000001FF
