:020000040000FA
:10000000E809002049010000517900005173000007
:1000100000000000000000000000000000000000E0
:100020000000000000000000000000009D870000AC
:100030000000000000000000257D00004188000055
:10004000DD2E0000FB8A000085890000A9890000E0
:10005000798A000055730000D12C0000D32C0000D9
:10006000457A000081540000815400008154000052
:10007000815400008154000081540000815400002C
:10008000815400008154000081540000815400001C
:10009000815400008154000081540000815400000C
:1000A00081540000815400008154000081540000FC
:1000B00081540000815400008154000081540000EC
:1000C00000F002F800F030F80CA030C8083824180E
:1000D0002D18A246671EAB4654465D46AC4201D180
:1000E00000F022F87E460F3E0FCCB6460126334282
:1000F00000D0FB1AA246AB46334318470CB20000AF
:100100002CB200000023002400250026103A01D361
:1001100078C1FBD8520700D330C100D50B607047BF
:100120001FB51FBD10B510BD02F046FD1146FFF70B
:10013000F7FF0AF087FA02F05EFD03B4FFF7F2FF63
:1001400003BC02F093FD00000748804707480047C2
:10015000FEE7FEE7FEE7FEE7FEE7FEE704480549A7
:10016000034A054B7047000043880000C1000000AF
:10017000E8050020E8090020E805002010B502F09D
:1001800052FB0022FE4B02F0E5F810BDFFB589B02E
:10019000054614460E46159802F04DFB0022F94B19
:1001A00002F0D8F8009001912846FFF7E7FF0746D4
:1001B00030460791FFF7E2FF029003912046FFF7D8
:1001C000DDFF08900C460C98FFF7D8FF05460E4659
:1001D0001298FFF7D3FF04900591169802F02BFBBD
:1001E0002A46334602F02AFB06900E46139802F088
:1001F00022FB2346089A02F021FB04460D46019B90
:10020000009A0399029802F019FB0090019114984A
:1002100002F011FB3A46079B02F010FB019B009A8B
:1002200002F068F822462B4602F064F83346069A3C
:1002300002F060F8059B049A02F05CF80DB0F0BD86
:1002400070B586B01E4603460D9C0C9800194008F8
:10025000012B01AB46C3049018D0CB4800908B23F0
:100260004722CA49CA48FFF791FF04460D46304667
:1002700002F0E1FA02460B462046294602F06AF8EF
:100280000022C44B02F0DAFA06B070BDC2480090FA
:10029000FF22BF48CF236432C0491E30E3E730B5A8
:1002A00085B00B9D0A9C64196408012801A81EC032
:1002B0000BD0BB487E233E220090DB43D243B9499A
:1002C000B948FFF763FF05B030BDB8480090C623BA
:1002D000B548DB43B64AB7495830F2E7F0B51FB42A
:1002E00006460F460A9802F0A6FA0022A54B02F035
:1002F00031F804460D4632463B4602F09FFA002292
:10030000AD4B02F027F822462B4602F00BF8039B78
:10031000029A01F0FCFF05B0F0BD70B586B01E4634
:1003200003460D9C0C9800194008012B01AB46C3F5
:1003300004901AD0A1489B499F230F220090DB43D1
:10034000D243DC319E48FFF721FF04460D4630467C
:1003500002F071FA02460B462046294601F0FAFFE8
:1003600000228C4B02F06AFA8EE7914B9548904A36
:100370001A3300904A3A8B2093490001E3E730B5E5
:1003800085B00B9D0A9C64196408012801A81EC051
:100390000AD08E48B02396220090DB43D2438C498A
:1003A0008C48FFF7F3FE8EE7814B814A8A488449E7
:1003B00021334A3A00904A318848F2E730B585B097
:1003C0000B9D0A9C64196408012801A81EC00CD06A
:1003D00083486F4B0090853B824A83498348FFF7EF
:1003E000D5FE02F0DBF980B26DE781480090814BC9
:1003F000814A82498248F2E7F0B585B00D9D0C9C98
:10040000804E64196408012801A81EC01ED07E48D1
:100410006F4A654900905623413AD1317B48FFF736
:10042000B5FE04460D4602F0B9F90746C0B202F027
:10043000FAF922462B4601F075FF002233460AF0F6
:10044000BDFE0BD2F8B202F0F6F964E770485949E4
:10045000522300906F4A35316F48E0E7F8B202F05E
:10046000EAF90022334601F045FF54E730B585B084
:100470000B9D0A9C64196408012801A81EC00CD0B9
:100480006648FF2300907733654A66496648FFF760
:100490007DFE02F083F9C0B215E76448454A3B4946
:1004A0000090FF2353488733521DE4395030EEE764
:1004B00070B50E46404302F0B6F904460D4630468C
:1004C00002F0B9F90022334B02F0B8F922462B466C
:1004D00001F040FF70BDFFB58DB010990F98FFF788
:1004E000E7FF04460D460022514B0AF067FE01D299
:1004F0004F4D002400224F4B204629460AF090FE23
:1005000001D24C4D00244C4A4C4B2046294602F067
:1005100095F906460F464A4A4A4B2046294602F0BC
:100520008DF922462B4602F089F93B46324601F00E
:10053000E1FE0022444B01F0EAFE06460F4600228F
:10054000424B0AF03BFE01D2404F00260022404BB6
:10055000304639460AF064FE01D23D4F002618A805
:100560000FC802AC0FC416981799009001910DA8FE
:100570000FC8FFF765FE04460D460022354B6BE0C1
:100580000088C34000002440177A0100BE1E00000E
:1005900095F4FFFF00408F40C2350100FF170000B7
:1005A000B5CDFEFF9C070000740A0000B2D1FEFF2B
:1005B000AFFEFFFF4E0E000000005940A780010073
:1005C00022040000A20D01008606000023ABFEFFFE
:1005D0001A0300003A090000ACC7FDFF9A0C0000A6
:1005E0002ED9F6FFCC78FFFF3B820100D2F7000046
:1005F000CC11F3FFAEEAFFFF4551FFFF7FE301009F
:10060000731C01000000E03F2C48FFFF29FCFFFFA6
:10061000266D02004205000048F6FFFF4BED080082
:10062000E81100008E3B0000C5DAFFFFD32805006B
:1006300000000440008056406666666666366E407E
:100640005839B4C876BE16C0004CA34000804B4059
:1006500000005840008046400AF0E2FD01D2FC4D07
:1006600000240022FB4B204629460AF0A7FD01D2B8
:10067000F84D00240E9802F0DEF8F74AF74B02F02E
:10068000DDF822462B4601F035FE04460D980D4656
:1006900001287DD0F24AF34B204602F0CFF80591B5
:1006A0000490F14AF14B2946204602F0C7F8224651
:1006B0002B4602F0C3F803910290ED4AED4B294618
:1006C000204602F0BBF822462B4602F0B7F822463D
:1006D0002B4602F0B3F801910090E74AE74B204621
:1006E000294602F0ABF822462B4602F0A7F8224634
:1006F0002B4602F0A3F822462B4602F09FF8019BFE
:10070000009A01F004FE039B029A01F0F3FD059BA1
:10071000049A01F0FCFDDA4ADA4B01F0EBFD00220D
:10072000D94B079106900AF049FD03D20020D64923
:100730000791069018A80FC802AC0FC41698179915
:10074000009001910DA80FC8FFF7A9FD009001913D
:100750000D98CE4901287AD0C94ACD4B5242086C37
:10076000496C02F06BF804460D460022C94B019912
:10077000009801F0BFFD22462B4601F0C8FD002283
:10078000C54B099108900AF04BFD05D2002000E00E
:1007900018E0C1490991089018A80FC802AC0FC40D
:1007A00016981799009001910DA80FC8FFF724FE25
:1007B00004460D460022B94B0AF032FD4AD8002407
:1007C000B74DACE0B74AB84B204602F037F801917C
:1007D0000090B64AB64B2946204602F02FF8224632
:1007E0002B4602F02BF805910490B24AB24B2946F1
:1007F000204602F023F822462B4602F01FF822463C
:100800002B4602F01BF803910290AC4AAC4B2946F0
:10081000204602F013F822462B4602F00FF822463B
:100820002B4602F00BF822462B4602F007F8039BFA
:10083000029A01F06CFD059B049A01F068FD019B92
:10084000009A01F057FD9F4A9F4B66E7FFE79F4ADA
:100850009F4B84E79F4AA04B2946204601F0EEFFBC
:10086000874A0B910A9052429C4B2046294601F040
:10087000E5FF22462B4601F0E1FF05910490984ADE
:10088000984B2046294601F0D9FF22462B4601F01D
:10089000D5FF22462B4601F0D1FF03910290924AE8
:1008A000924B2046294601F0C9FF22462B4601F013
:1008B000C5FF22462B4601F0C1FF22462B4601F020
:1008C000BDFF019100908A4A8A4B2946204601F0DB
:1008D000B5FF22462B4601F0B1FF22462B4601F020
:1008E000ADFF22462B4601F0A9FF22462B4601F020
:1008F000A5FF019B009A01F00AFD039B029A01F0FB
:10090000F9FC059B049A01F002FD0B9B0A9A01F089
:10091000F1FC794A794B01F0EDFC04460D460022CA
:100920005F4B204629460AF049FC01D25C4D002469
:10093000534A734B2046294601F080FF6E4A0191CD
:10094000009052426F4B0999089801F077FF6A4A6C
:100950000546029152426C4B0799069801F06EFFD2
:10096000654A044603915242674B3046394601F0CE
:1009700065FF2246039B01F0BDFC2A46029B01F065
:10098000B9FC019B009A01F0B5FC01F007FFC0B271
:100990002D2802D22D2011B0F0BD6428FBD964208F
:1009A000F9E770B50546594E084601F044FF012DA0
:1009B00004460D460CD0564A564B01F03FFF2B46DD
:1009C000224601F03BFF0022334601F0C3FC70BD1C
:1009D000514A524BF1E770B586B00B9D0A9C0D9EB3
:1009E0006419A41BE50F2C19E403240C012801A8A9
:1009F0001EC008D04A4800906E23362249494A4812
:100A0000FFF7C4FB40E44948FF2309330090D52297
:100A100047494848F4E770B586B00E9D0A9C0C9E85
:100A20006419A41BE50F2C19E403240C012801A868
:100A30001EC00BD0404800903A493B480C2273231B
:100A4000D243A5397630FFF7A1FB1DE476E0000024
:100A50000080464000001440B81E85EB51B89E3F10
:100A60000AD7A3703D0A244012143FC6DCB5EE3FFE
:100A70005B94D920938C9C3F68DCE56C4B2E303F17
:100A80007B14AE47E11A544000804B4088000020A0
:100A90001E85E73F008056400000594000002E4070
:100AA000000049C03333333333B325406ADE718AE3
:100AB0008EE4D23F1893FE5E0A0F6A3FB96C74CE83
:100AC0004F711C3FABCFD556EC2FDB3FA4703D0AD6
:100AD000D7A3E83FE17A14AE47613E401E45364059
:100AE000B29DEFA7C64B0F4014AE47E17A14D23F38
:100AF00004543882548A7D3F666666666656564060
:100B0000E17AB43F9999B93F9999D93F0088C34098
:100B1000986E1283C0EA3440AAF1D24D62903540FB
:100B2000FFF30900A02000000DEAFFFFCBCD040079
:100B300002130000AFF2FFFFDA030A00FE48A6230B
:100B4000FF2200900532FD49FD487CE770B586B074
:100B50000B9D0F9C0C9E6419A41BE50F2C19E4033C
:100B6000240C012801A81EC009D0F64828220090B4
:100B7000F023D243F449F548FFF708FB42E7F44875
:100B8000F1490090F148D5228039F24B8438F3E7DF
:100B900070B586B00E9D0F9C0D9E6419A41BE50FC9
:100BA0002C19E403240C012801A81EC00AD0EA482D
:100BB0000090E6483422C123D243E849C530FFF70C
:100BC000E5FA1FE7E6489323FF22E4499B002B3216
:100BD00000907539E348F2E7FFB58FB007461B99DF
:100BE0001A981E46401801F026FE0022DE4B01F046
:100BF000B1FB04460D46109801F01DFE02900391D2
:100C0000304601F018FE00900191119801F013FE9A
:100C100005910490012F2FD0D44AD54B2046294668
:100C200001F00CFE0D910C90D24AD34B039902981F
:100C300001F004FE06460F46D04AD14B01990098B8
:100C400001F0FCFD04460D46CE4ACF4B05990498B1
:100C500001F0F4FD22462B4601F04CFB32463B46A8
:100C600001F055FB0D9B0C9A01F044FBC74AC84BA1
:100C700001F040FB13B0F0BDC64AC74B20462946E1
:100C800001F0DCFD06460F46C44AC54B03990298A5
:100C900001F0D4FD04460D46C24AC34B01990098A9
:100CA00001F0CCFD00900191C04AC14B0599049818
:100CB00001F0C4FD019B009A01F01CFB22462B466B
:100CC00001F018FB32463B4601F014FBB94ABA4B1F
:100CD000CEE770B586B00B9D0A9C0D9E6419A41BCF
:100CE000E50F2C19E403240C012801A81EC009D02B
:100CF000B24808230090DB430A2295215720FFF7D2
:100D000045FA7FE6AE481B230422DB43D2439821F9
:100D10000090B420F3E770B586B00E9D0A9C0C9E3F
:100D20006419A41BE50F2C19E403240C012801A865
:100D30001EC009D0A1481022F030031200909C215F
:100D40004B20FFF723FA5DE69D481623CC38DB43A2
:100D50005A1D96210090A620F3E770B586B00B9D32
:100D60000F9C0C9E6419A41BE50F2C19E403240CA2
:100D7000012801A81EC00BD0924800904723FF21F4
:100D8000FF20DB433A2224318030FFF7FFF939E6B8
:100D90008D4870490090B0236E48DB4308224131F2
:100DA0002830F2E770B586B00E9D0F9C0D9E641939
:100DB000A41BE50F2C19E403240C012801A81EC074
:100DC0000BD0824800904823FF21FF20DB434222C2
:100DD00030319330FFF7DAF914E67D485D499E2300
:100DE00042120090DB435D3111204001F2E7FFB574
:100DF0008FB007461B991A981E46401801F01BFD3C
:100E00000022594B01F0A6FA04460D46109801F055
:100E100012FD02900391304601F00DFD009001910A
:100E2000119801F008FD05910490012F2ED0694A18
:100E3000694B2046294601F001FD0D910C90674A4F
:100E4000674B0399029801F0F9FC06460F46654A84
:100E5000654B0199009801F0F1FC04460D46634A88
:100E6000634B0599049801F0E9FC22462B4601F0FA
:100E700041FA32463B4601F04AFA0D9B0C9A01F0CA
:100E800046FA5C4A5C4B01F042FAF3E65B4A5C4B83
:100E90002046294601F0D2FC06460F46594A5A4BD5
:100EA0000399029801F0CAFC04460D46574A584B74
:100EB0000199009801F0C2FC00900191554A564BEF
:100EC0000599049801F0BAFC019B009A01F012FA0E
:100ED00022462B4601F01BFA32463B4601F00AFA45
:100EE0004E4A4F4BCFE7FFB585B00C4605461199EA
:100EF0001098401801F09FFC00221B4B01F02AFAC9
:100F0000484A494B01F09AFC00900191284601F0B3
:100F100092FC464A464B01F091FC06460F4620469D
:100F200001F089FC434A444B01F088FC04460D461D
:100F3000089801F080FC81E079330500A6110000DB
:100F400067F3FFFF330E0900691700007DEFFFFF15
:100F5000859E050089020000E610090026160000A3
:100F60004CB1040029F1FFFF0000494076711B0DD0
:100F7000E02DF03FC217265305A3923F4278B4718B
:100F8000C45ABC3FA9A44E401361E5BF4BEA0434E8
:100F900011A64640D6C56D3480B7E03FA01A2FDDBC
:100FA0002406C93F7FDE54A4C2D8B23F4260E5D0D8
:100FB00022DBDDBFAE47E17A148E3F40D4F6FFFF5F
:100FC00031E9FFFFD9130000D594FFFFD2030000E1
:100FD00073DBFFFF5839B4C876BEAF3F4850FC18EA
:100FE00073D7823F3CF71E2E39EE843F04560E2DF8
:100FF000B29DC73F8CDB68006FC128402D431CEBBE
:10100000E2361A3FD26F5F07CE19913F08556AF654
:10101000402B903F1D386744696FC03F8D28ED0D10
:10102000BEB013400B24287E8CB9F03FFE43FAED8E
:10103000EBC0074092CB7F48BF7DBD3FFD4AFE4BD2
:1010400001F0FCFB02900391079801F0F4FBFB4ACE
:10105000FB4B01F0F3FB039B029A01F04BF9224694
:101060002B4601F047F93B46324601F043F9019B1C
:10107000009A01F03FF9F34AF34B01F03BF909B054
:10108000F0BDFFB585B00C46054611991098401883
:1010900001F0D1FB0022ED4B01F05CF9EC4AED4B85
:1010A00001F0CCFB00900191284601F0C4FBEA4A14
:1010B000EA4B01F0C3FB06460F46204601F0BBFB9E
:1010C000E74AE84B01F0BAFB04460D46089801F0E8
:1010D000B2FBE54AE54B01F0B1FB029003910798A2
:1010E00001F0A9FBE24AE34B01F0A8FB039B029A43
:1010F00001F000F922462B4601F009F93B46324641
:1011000001F0F8F8019B009A01F001F9DA4ADB4B93
:1011100001F0F0F8B3E7F0B5D94D85B02C46803436
:10112000204610300FC801F0E5F8636A226A01F02A
:10113000E1F8E36AA26A01F0DDF8636B226B01F06B
:10114000D9F86B692A690AF06BF82AD869692869A5
:10115000CC4ACD4B0191009001F070FB02902046EB
:10116000039110300FC801F0C5F8636A226A01F0DC
:10117000C1F8E36AA26A01F0BDF8266B636B3246E0
:10118000049301F0B7F8019B009A01F0C0F8039BAB
:10119000029A01F0AFF83246049B01F0C3F8616394
:1011A0002063B7498A6ECB6E086F16461F461446F9
:1011B0001D46496F0AF034F8B14802D2476F066FF6
:1011C00001E0456F046FAE493246886F3B46C96FF8
:1011D0000AF026F803D2AA48C76F866F0AE0A8492A
:1011E0002246886F2B46C96F09F0E8FF02D2A44857
:1011F000C56F846FA2493246803103C93B460AF06D
:101200000FF803D29E488030C0C80AE09C492246AD
:10121000803103C92B4609F0D1FF02D298488030B3
:1012200030C897493246803188683B46C96809F022
:10123000F7FF04D292488030C76886680CE0904976
:101240002246803188682B46C96809F0B7FF03D26F
:101250008B488030C56884683B46894F3246F968C0
:10126000B86809F0DDFF0DD23C4680340122E16B05
:10127000A06B01F007FCFB68BA6801F03BF8E16085
:10128000A0603DE022462B46F968B86809F096FF59
:1012900036D27B4E01228036F16BB06B01F0F2FB4F
:1012A00022462B4601F026F8FB68BA6801F02FF8B9
:1012B00004460D46FB6EBA6E01F034F8F966B86666
:1012C00022462B46796F386F01F021F8796738672D
:1012D00022462B46F96FB86F01F019F8F967B86725
:1012E00022462B467168306801F011F87160306059
:1012F00022462B46F168B06801F009F8F160B06051
:10130000624D00222B463C46F96EB86E09F056FF3E
:1013100003D229460020E166A0664C4E00223346E7
:10132000E16EA06E09F07CFF03D231460020E16639
:10133000A06600222B46616F206F09F03FFF03D2A9
:10134000524900206167206700223346616F206F99
:1013500009F066FF03D23D49002061672067002243
:101360002B46E16FA06F09F029FF03D24749002007
:10137000E167A06700223346E16FA06F09F050FFDC
:1013800003D232490020E167A0673D4C002280343F
:101390002B466168206809F011FF03D23B49002009
:1013A00061602060002233466168206809F038FFE0
:1013B00003D2264900206160206000222B46E168AC
:1013C000A06809F0FBFE03D230490020E160A06074
:1013D00000223346E168A06809F022FF03D21B49CE
:1013E0000020E160A0602A4E002233466169206936
:1013F00009F0E4FE03D23146002061612061254FEF
:1014000000223B466169206909F00AFF03D2394690
:1014100000206161206100223346E169A06909F082
:10142000CDFE03D21A490020E161A06100223B46B3
:10143000E16931E0726DA818E76FBA3F2C6519E2D7
:101440005817DBBF7D3F355EBA994A4000004940DE
:101450001361C3D32B65693F696FF085C954B13FF0
:10146000053411363CBD923FDE9387855AD3AC3F9D
:10147000787AA52C431CCBBFF775E09C119D574093
:10148000880000209A9999999999B93F00000840DD
:101490000000E03F00003940A06909F0C1FE03D21E
:1014A000FE490020E161A0610126B6070022334613
:1014B000616A206A09F082FE03D23146002061622F
:1014C0002062F74F00223B46616A206A09F0A8FEBD
:1014D00003D2394600206162206200223346E16A6D
:1014E000A06A09F06BFE04D2002001218907E162A5
:1014F000A06200223B46E16AA06A09F091FE03D295
:10150000E7490020E162A06200222B46616B206B5C
:1015100009F054FE03D2E3490020616320630022F6
:10152000E14B616B206B09F07BFE03D2DE490020AA
:101530006163206305B0F0BDFFB58BB00020159E40
:1015400006900D98149F169D189C5A38832801D335
:10155000012006900E98D549C838884201D3022050
:1015600006900C981238522801D30320069019983F
:10157000C838884214D2C82E12D3CC48C73086420D
:101580000ED8C82D0CD385420AD81799C82907D37D
:10159000C82C05D3844203D8FA2F01D3874202D93D
:1015A0000420069002E00698002836D0C0480021AA
:1015B0008160C160016141618161C161016241621B
:1015C0008162C1620163416341808163C1630170D3
:1015D0004170016441648164C16401654165816554
:1015E000C165016641668166C166016741678167C1
:1015F000C1678030016041608160C160016141610B
:101600008161C161016241628162C16201634163C2
:101610008163C16306980FB0F0BD199917980097C0
:10162000039001960295049405910BA80FC8FEF74C
:1016300007FE9F4A9F4BD1609060002209F0F0FDA9
:1016400004D29B489B4A0021C260816098490022D5
:101650008868994BC96809F0B1FD04D29448964A4C
:101660000021C26081601999179800970390019634
:101670000295049405910BA80FC8FEF710FE8C4A42
:101680008E4B51611061002209F0CAFD04D28848D6
:101690008A4A002142610161854900220869884B1C
:1016A000496909F08BFD04D28148854A00214261D5
:1016B00001610E9800907E4801464369026988687E
:1016C000C968FEF70BFE7A4A7E4BD1619061002219
:1016D00009F0A6FD13D876480146C36982690869F6
:1016E000496900F007FE0022764B00F010FE704AB8
:1016F000516110616E48734A0021C26181616C4979
:1017000000228869704BC96909F058FD13D86849EF
:10171000002208696C4B496900F0F9FD644B9A6935
:10172000DB6900F0E7FD624A516110616048664A7A
:101730000021C2618161199800971799059001965F
:101740000295049403910BA80FC8FEF7E6FD584AD2
:101750005E4B51621062002209F062FD04D25448CF
:101760005A4A00214262016251490022086A584BDC
:10177000496A09F023FD04D24D48554A00214262CE
:1017800001620E9801F057F8494B079108900991B2
:101790000A901A6A5B6A01F051F800224D4B00F082
:1017A000D9FD434B1A695B6900F0BCFD404A8032A9
:1017B00051641064099B0A9A00F0CCFD0022454B4D
:1017C00001F03CF83A4A444BD1629062002209F0A1
:1017D00027FD20D83648404AC2620021816207991D
:1017E000089800223C4B0191009001F027F800225C
:1017F000384B00F0AFFD2E4B1A695B6900F092FD8B
:10180000019B009A00F0A6FD0022344B01F016F86F
:10181000274A5162106226490022886A264BC96A0B
:1018200009F0CCFC20D82248234AC2620021816200
:10183000079908980022204B0191009000F0FEFFCC
:101840000022244B00F086FD194B1A695B6900F0F9
:1018500069FD019B009A00F07DFD00221F4B00F006
:10186000EDFF134A5162106219980097179905907D
:1018700001960295049403910BA80FC8FEF77FFD13
:101880000B4B596318631A695B6900F063FD144AD6
:10189000144B09F0C5FC29D8114A25E00000394055
:1018A0000080414000000840000052401505000043
:1018B00088000020008046400000144000B06140D5
:1018C00000001C40000010400000F03F0040554068
:1018D0000000344000408F400000404000002440A1
:1018E000666666666666E63FFE4B0DE0FE494B693E
:1018F0000A69086B496B00F02DFDFC4AFC4B09F0AE
:101900005DFC09D8F94AFA4BF7490869496900F0C2
:1019100095FFF54A51631063199A1799009701963C
:1019200002950494059203910BA80FC8FEF746FD9B
:101930000146ED484180EF48814202D3EA494880A0
:1019400005E0FF20E84A9130814200D85080199983
:1019500017980097039001960295049405910BA89F
:101960000FC8FEF749FDE04AE34BD16390630022C4
:1019700009F056FC04D8DC48DF4A0021C2638163C9
:10198000D9490022886BDD4BC96B09F017FC04D8DC
:10199000D548DA4A0021C26381630E990D98FEF79B
:1019A00087FDD14AD64BD1649064002209F038FCFF
:1019B00004D8CD48D24A0021C2648164CA490022B9
:1019C000886CD04BC96C09F0F9FB04D8C648CD4AE5
:1019D0000021C26481640D990B98FEF7E2FFC24AB0
:1019E000C94B516410640191009000220799089836
:1019F00000F0B0FC03910290019B009A00F092FC71
:101A0000B94AD16590650890099113469A6803997F
:101A10000298DB6800F012FF0022BC4B00F09AFC39
:101A2000029003910B9800F006FFB94AB94B00F001
:101A300005FF0022B84B00F075FC019B009A00F0F6
:101A4000FDFE039B029A00F062FCA74A51661066F5
:101A5000099B089A00F066FCA34A51651065199924
:101A6000179A0097019602950494039205910BA88A
:101A70000FC8FEF7FBFC01469B480F29017001D2FD
:101A80000F2103E09848502901D95021017019997C
:101A9000179A0097019602950494039205910BA85A
:101AA0000FC8FEF718FD90494870199A17990097CA
:101AB000019602950494059203910BA80FC8FEF7B6
:101AC0008AFF894A954BD1669066002209F076FB21
:101AD00004D28548914A0021C2668166824900226B
:101AE000886E8F4BC96E09F09BFB04D27E488C4AEE
:101AF0000021C26681661999179A0097019602958E
:101B00000494039205910BA80FC8FEF784FF764A50
:101B1000824B51671067002209F050FB04D27248D3
:101B20007E4A0021426701676F490022086F7C4BA3
:101B3000496F09F075FB04D26B48794A002142676E
:101B400001671999179A00970196029504940392D8
:101B500005910BA80FC8FEF7F9FF634A6F4BD167D9
:101B60009067002209F02AFB04D25F486B4A0021EB
:101B7000C26781675C490022886F694BC96F09F0B1
:101B80004FFB04D25848664A0021C2678167199A00
:101B900017990097019602950494059203910BA85A
:101BA0000FC8FEF7F5FF504A5C4B803203C200229B
:101BB00009F004FB04D24C480021584A803006C08A
:101BC00049490022803103C9554B09F029FB04D251
:101BD00045480021524A803006C01999179A00974B
:101BE000019602950494039205910BA80FC8FEF785
:101BF000F3FF3D4A494B8032D1609060002209F0EA
:101C0000DDFA05D238480021444A8030C260816044
:101C10003549002280318868414BC96809F000FBD2
:101C200005D2314800213E4A8030C2608160199A55
:101C300017990097019602950494059203910BA8B9
:101C40000FC8FFF746F8284A364B803251611061C1
:101C5000002209F0B3FA05D223480021314A80302E
:101C60004261016120490022803108692E4B496997
:101C700009F0D6FA05D21C4800212B4A8030426177
:101C800001611999179A009701960295049403929D
:101C900005910BA80FC8FFF73EF8134A214B80327D
:101CA000D1619061002209F089FA05D20E48002125
:101CB0001C4A8030C26181610B49002280318869F1
:101CC000194BC96909F0ACFA05D207480021164A38
:101CD0008030C2618161199A179900970196029527
:101CE000049423E06666E63F88000020CDCCCCCC8F
:101CF000CCCCDC3FAC0D000000804D400000F03F3C
:101D000000306740000010400000244000005940AF
:101D10007B14AE47E17AB43F0000D03F000008409A
:101D2000000049400000E03F000039400592039167
:101D30000BA80FC8FFF711F8514A01235162106236
:101D400000229B0709F03AFA05D2002101224C48F3
:101D50009207426201624A490022086A494B496A75
:101D600009F05EFA04D24648464A00214262016206
:101D7000199A179900970196029504940592039178
:101D80000BA80FC8FFF70EF83D4A0123D1629062FD
:101D900000229B0709F012FA05D2002101223848DF
:101DA0009207C262816236490022886A354BC96A4D
:101DB00009F036FA04D23248324A0021C262816206
:101DC0001999179A00970196029504940392059128
:101DD0000BA80FC8FFF70BF8294A2B4B5163106370
:101DE000002209F0EBF904D22548274A002142637A
:101DF000016323490022086B244B496B09F010FA58
:101E000004D21F48214A0021426301631999179A9D
:101E10000097019602950494039205910BA80FC8B0
:101E2000FFF72FF9099108901999179A00970196D1
:101E300002950494039205910BA80FC8FFF753F87D
:101E4000099B089A00F086FA0D4C114AE163114B88
:101E5000A06309F0B3F903D20E490D48E163A06312
:101E600000220D4BE16BA06B09F0DAF903D20A49AD
:101E70000020E163A063FFF74EF9FFF7CBFB000002
:101E8000080100200080414000000840000052404E
:101E9000333333333333E33F0000F83F0022030989
:101EA0008B422CD3030A8B4211D300239C464EE075
:101EB00003460B433CD4002243088B4231D3030931
:101EC0008B421CD3030A8B4201D394463FE0C309E3
:101ED0008B4201D3CB01C01A524183098B4201D3FB
:101EE0008B01C01A524143098B4201D34B01C01AE6
:101EF000524103098B4201D30B01C01A5241C3085E
:101F00008B4201D3CB00C01A524183088B4201D3CC
:101F10008B00C01A524143088B4201D34B00C01AB8
:101F20005241411A00D201465241104670475DE0CD
:101F3000CA0F00D04942031000D340425340002250
:101F40009C4603098B422DD3030A8B4212D3FC22F9
:101F5000890112BA030A8B420CD3890192118B4278
:101F600008D3890192118B4204D389013AD092118E
:101F700000E08909C3098B4201D3CB01C01A524149
:101F800083098B4201D38B01C01A524143098B4212
:101F900001D34B01C01A524103098B4201D30B01FB
:101FA000C01A5241C3088B4201D3CB00C01A524120
:101FB00083088B4201D38B00C01A5241D9D2430807
:101FC0008B4201D34B00C01A5241411A00D2014644
:101FD000634652415B10104601D34042002B00D5AE
:101FE0004942704763465B1000D3404201B5002070
:101FF000C046C04602BD704770477047F0B50C46FA
:10200000871A9C410D46861A9D4103D2C01BA141EF
:10201000D21963410D0D1F0DC94EEC1BAE435CD0B0
:102020007F057F0D0026002F51D02D05AC46A9431A
:10203000DD020123ED0A1B051D4320231B1B24D4B5
:102040001746E740381871412F46E740CC199D40AC
:102050002818314661410C0D27D161449A4013D5AF
:102060000023401C594152000ED14008400001227B
:102070004B005205D34207D305204007C14201D58A
:10208000B04900E0B0493046F0BD6B00002A00D0F6
:1020900001229A181F23203C1B1B01D5002302E0BC
:1020A000E540281871410C0DD7D0012424050919E9
:1020B000C407CD0740084908E40F28436144002CB9
:1020C000D5D00024401C61419A40D0D1CDE76A05AB
:1020D000520DD9D1C90FC907D5E79C4D4E00002834
:1020E00001D0012400E0002434195F00002A01D04F
:1020F000012600E00026BE19954FAC420CD8AE4236
:102100000AD8B44206D001256D05EC42BCD0104679
:102110001946F0BD9942FCD000203946F0BDF0B51B
:102120001FB40C460F46811A9F412546861A9D41D1
:1021300006D20125ED076F40401ABC4152187B4181
:10214000210D1E0D8D1BAC467D4D8D437ED075053A
:102150006D0D7CD00D05AE46AC431B031B0B794DBA
:1021600052429D41202366469B1B14D31746F740DD
:10217000381800260090744160462F460741E41944
:1021800000989D402818664116D4714671189A40EF
:1021900025D5012320E093182A466A415200002BDE
:1021A00000D0521C1E23203E9B1B002B61DD3541BD
:1021B000EE1728186641E8D5001876415B1C9A4056
:1021C00000D3401C4B05F3181524E34010D3002B1B
:1021D00052D071467118D30FC01802D3491C05B0F4
:1021E000F0BD0123DB079A42F9D140084000F6E731
:1021F00001225205B21801D1002853D00123CC0A84
:10220000DB029943891E002A08D1020C03D0020C7C
:102210000004103902E00246002020390023550B4B
:1022200005D112020823550B01D152010D23550C83
:1022300001D112011B1DD50C01D192009B1C150D63
:1022400001D152005B1C2025EE1A01E02CE022E0B7
:102250000546F54015439840CA1AE1076918130569
:10226000C918002ABBDA032040070818C10FC907A4
:102270000FE071466118B2E7F1074008084371109A
:1022800071444A000CD001235B059A42A7D2C90FC2
:10229000C9070020A3E74905490D26D1002001E028
:1022A0000028F4D100219AE7284D6600002801D0CB
:1022B000012100E0002171185F00002A01D00126F1
:1022C00000E00026BE19224FA94210D8AE420ED817
:1022D000B14208D001256D05E94206D01946A80291
:1022E000414010467BE79C4201D0214677E7002021
:1022F000394674E710B50C465C4005D50124E40767
:102300006340FFF70CFF10BDFFF778FE10BD30B43F
:102310000C465C4004D50124E407634030BC6DE604
:1023200030BCFCE670B50124E40761400D465D4019
:1023300002D4FFF763FE70BD6340FFF7F0FE70BD8F
:10234000FF0700000000F0FF0000F07F0000E0FF4A
:102350000000F87FF0B5F94D0C091E092C402E4005
:102360002F468BB0A7437DD0B543FCD0002E7AD04A
:10237000002CFCD00D465D40ED0F2543AC1BFF2526
:10238000AD0464190894C502440DC9022143500DDF
:10239000DC0204430120C00701430443D20201913F
:1023A000200C110C00958C46010423468B430A91A6
:1023B00061460904E24D8A430991010A7D444919A5
:1023C0008039097805464D4301266D18F605751BC1
:1023D0006943C90C640B891C4C436418B5012C1B60
:1023E000250C2E04B4434C434D43210C6918890934
:1023F0000591009DE90701D00121C90704912C46F0
:1024000001996708CD072F434C08059DE10B4D430B
:102410002D0C29466646754302950D4645432E46CA
:10242000029D7D1BB44100950D465D4301942C0C2B
:102430002F040D465543AE462D0C3D4302950394A3
:102440007546049C2D04641B049406D2029C039DD3
:10245000641C002675410395029401AC70CC009F6A
:102460007D1B01E03EE162E1B44109040095079162
:1024700001940599A4086143090C0C464443650B7B
:10248000E7040C4666467443A646640B3C4303953A
:1024900002947446049DE4042C1B049406D2029C0E
:1024A000039D641C002675410395029401AC70CC19
:1024B000009F7D1BB44101940C465C430095650F61
:1024C000E7000C465443A646640F3C430395029430
:1024D0007446049DE4002C1B049406D2029C039DC8
:1024E000641C002675410395029401AC70CC009FDA
:1024F0007D1BB441AE09AF06049DC900AD092F4351
:10250000049DA406AD060495079D34436918079100
:10251000059DE10B4D432D0C2946664675430295FA
:102520000D4645432E46029D7D1BB44100950D4648
:102530005D4301942C0C2F040D465543AE462D0CE3
:102540003D43029503947546049C2D04641B04943A
:1025500006D2029C039D641C0026754103950294DB
:1025600001AC70CC009F7D1BB44101948C05069496
:10257000079C890A611800950791019C0599A40898
:102580006143090C0D464543680BEF040D46644654
:1025900065436C0B3C43049FED047D1BAC4602D2AB
:1025A0000025641C6841009E019D371B854108463B
:1025B000584301950C46460FC5005443600F28430D
:1025C0006546E4002C1B02D20025401C6E41019D93
:1025D0003F1AB5412846BD09800628438446A00914
:1025E000BF064E020699A40676180743079D0020F1
:1025F00068410A99079019430020099B00906046A2
:10260000FF1913434041E20F64003A43A4460446D5
:10261000D71A8C41A04203D90120009020463A46A7
:10262000C70F941840416246D20F224364466400AB
:102630000494009CBE466400D71AA4460446029740
:102640008C417746002F01D1A04204D96046401C3E
:102650008446029A2046C40FA64694184041049A24
:102660000546D20F224364466400D31A8D41714659
:10267000002901D1A84202D928461A46641C1043F9
:102680000122002800D0164361020020079B89190F
:1026900004465C410223002C02DB491813466441C6
:1026A000089DCE0A2D145D194B056705E10A2C051E
:1026B0000D1908993E43C9076940002B08D0934083
:1026C00006D30022761C5141002B01D176087600FA
:1026D0001C4A002D43DB154241D0AA433FD030466F
:1026E0000BB0F0BD06180D464D41174C7642AC417B
:1026F0001AD395181C465C41134A6D42A24113D36C
:10270000012252054C00D4420AD15C00D4420BD0C5
:102710004B4002D592021143E2E749004908DFE746
:102720005940C90FC90718E000200849D8E70548F3
:1027300001420DD10342F7D0F2E700000000FF078D
:10274000C88E00000000F07F0000E0FF0000F87F6E
:10275000114859400143C01241400020C0E7012305
:10276000089A9B069A4205DC032252078918C90F72
:10277000C907B5E7052252078918074A1143D21243
:102780005140ADE770B515461C4602460B4628463B
:102790002146FFF7DFFD70BDFFFFFF7F0346CA0242
:1027A000400D10B510430A1504D00124E40720435E
:1027B000002A05DB0A4CA21A04D4D040FF2A00DD0F
:1027C000002010BD4A00002B01D0012000E00020B5
:1027D000101801225205D042F2D8C817C04310BDCC
:1027E0001E0400001F22030C02D10F22000402D09D
:1027F000030E03D004E00020014670470002083AAF
:10280000030F01D10001121F830F01D18000921E1E
:10281000002801DB4000521E120551184205C0126B
:10282000411810467047C10FC90700D0404201222D
:1028300092071143D6E701218907D3E7F0B58B4C06
:102840000F09254689B0BD437BD01D092646AE43FE
:10285000FAD00E465E402740F60F3E43254071D029
:1028600024012142FBD0FF24AD19A4042D1B0395A4
:1028700001252D05DB02DB0AC9022B43C90A2943C6
:102880001E010901040F130F050121431701880BD5
:10289000820391432D098C46A90B1E438A0395435D
:1028A000B30B9A0396433F09BA0B9403A7430296CE
:1028B0002E467E430497B6464E19D7190C4601960C
:1028C000544305977E43371B7646BF1B3601B646F9
:1028D000BE0B361900967646BC043719009C01D30E
:1028E000641C00946400002F01D001263443029E32
:1028F000049F754366467E430496760034196E0045
:1029000034190094029C019E1C196643751BAE4647
:10291000069465464519059C05956C4359437546D3
:102920000891691A0191049E01465143A41B049128
:10293000611A009C0791E10605D06109012211434B
:1029400002E072E06EE06109089D00272C0A2D0666
:102950006918049D7C412A0A2D066918019D62416F
:10296000AC0DAD026D185441079A910D92025519A4
:102970006141029A644658435443069B059A5A4360
:10298000121A131B9A0E9B015B187A41010B00056A
:10299000C3185141220A200644195A419A4200D2D2
:1029A000491C01204002814203D315230226F6432D
:1029B00002E014230326F6432020C51AA940174637
:1029C000AF40DA400A4320460399D84009147318EF
:1029D00019055118039A3843D2075140AC4009D029
:1029E0000122944006D30022401C5141002C01D109
:1029F000400840001E4A934212D3012203989206D7
:102A0000904207DB0520400709181A480143C0120D
:102A1000414004E0032040070818C10FC907002007
:102A200009B0F0BD0020F107FAE705180C464C414B
:102A300011486D42A04115D394181A465A410E48C8
:102A4000644290410ED301204A004005824209D3DE
:102A50005A00824206D35940C90F084AC9070020CC
:102A60001143DDE700200649DAE700000000FF0718
:102A7000FE070000FFFFFF7F0000E0FF0000F07F87
:102A80000000F87F70B505464800440D124B002049
:102A9000002C0AD0634008D09A4206DA6642B2425D
:102AA00003DD12054019514170BD002C08D0002BE8
:102AB00009D0C90FC907002AF6DB084A114370BDC7
:102AC000C90FC90770BD28460A03104302D0002071
:102AD000034970BD284670BDFF0700000000F07F6D
:102AE0000000F87FF8B5224C4E00069DA6420AD899
:102AF000A64201D1002806D15E00A64203D8A64214
:102B00000AD1002A08D00D24240425422CD02946BD
:102B1000002000F02FF8F8BD0C461C430CD499425D
:102B200002D0EFF30080F8BD904202D0EFF30080B6
:102B3000F8BDEFF30080F8BD09242407E5008B42BF
:102B400006D0EFF30080A043591A06D2284304E0D0
:102B5000101A05D3EFF30080A04380F30088F8BD7E
:102B6000EFF30080A043F1E7009500F01BF8F8BDFB
:102B70000000E0FFC80212D54803400F002804D02F
:102B8000C803C043012188407047EFF30080000173
:102B9000000903210907084380F3008870470020DB
:102BA0007047000010B500200249029A00F02BF88F
:102BB00010BD00000000F87F754600F053F8AE46E7
:102BC000050069465346C008C000854618B020B5C8
:102BD000FDF7C4FA60BC00274908B6460026C0C508
:102BE000C0C5C0C5C0C5C0C5C0C5C0C5C0C5403DC5
:102BF00049008D46704710B50446C046C046204681
:102C0000FDF79BFA10BD10B50C461107090F0929F5
:102C100004D00A290AD008290CD104E01146082062
:102C2000FFF7A8FF06E0510606D501E0510601D5E1
:102C30000120C007214610BDD10607D501010909B1
:102C4000CC084907000E0006044309E0410F2002AA
:102C50004907000A0143200E00061D22D14101430D
:102C60000846E7E70048704788050020014918201A
:102C7000ABBEFEE726000200704770B58C180578E1
:102C8000401C6B075B0F01D10378401C2A1106D151
:102C90000278401C03E00678401C0E70491C5B1E45
:102CA000F9D12B0705D40023521E0DD40B70491CFB
:102CB000FAE70378401CCB1A921C03E01D780D70D4
:102CC000491C5B1C521EF9D5A142D8D3002070BD0F
:102CD00070477047802109584A08520080210A50E5
:102CE0007047000010B5044609488079002804D0D8
:102CF0000748C179072005F052FD05480830015DFD
:102D0000082005F04CFDCF21002005F048FD10BD46
:102D10007A01002010B500216D480079012801D109
:102D2000402001436A484079002806D0012809D094
:102D300002280ED0032816D112E03023084698430B
:102D4000014615E020230846984301461020014320
:102D50000EE020200143102308469843014607E077
:102D60003020014304E0302308469843014600BF69
:102D700000BF002207E05748805C0843544B0833EB
:102D80009854501CC2B254480078401C8242F2DB76
:102D90004F48807900286FD000204D4B1B78002BC6
:102DA00006D0012B09D0022B0ED0032B16D112E036
:102DB000C0240346A343184617E080240346A343D8
:102DC00018464023184310E080231843402403464C
:102DD000A343184609E0C023184306E080231843A4
:102DE00040240346A343184600BF00BF384B5B781E
:102DF000002B06D0012B09D0022B0ED0032B16D1AD
:102E000012E030240346A343184613E0202403466F
:102E1000A3431846102318430CE020231843102422
:102E20000346A343184605E03023184302E030234D
:102E3000184300BF00BF264B9B78002B06D0012B08
:102E400009D0022B0ED0032B17D112E00C2403461D
:102E5000A343184614E008240346A343184604235A
:102E600018430DE00823184304240346A3431846DF
:102E700006E00C23184303E029E00C23184300BFAD
:102E800000BF134BDB78002B06D0012B07D0022BA1
:102E90000CD0032B12D10EE08008800013E0022436
:102EA0000346A3431846012318430CE002231843AA
:102EB0004008400007E00323184304E002231843BE
:102EC0004008400000BF00BF014BD87100BF10BDDB
:102ED0007A010020460000204900002070470000D1
:102EE000F1B584B0049800287ED1DC4A516910699C
:102EF000052207F08DFA0390D84A03CA052207F08D
:102F000087FA0746D54AD16A906A052207F080FA07
:102F10000546D24AD1699069052207F079FA06463A
:102F2000CE4A516A106A052207F072FA0446CB4A6B
:102F3000D1689068052207F06BFA0290E919091B25
:102F40004810012107F04AFAC4490863E919091B2E
:102F50004810022107F042FAC04948633919491B59
:102F60004810012107F03AFABC4988633919491B16
:102F70004810022107F032FAB849C8630299711863
:102F8000091B4810012107F029FAB44940310860B3
:102F900002997118091B4810022107F01FFAAF4966
:102FA0004031486002990919891B4810012107F036
:102FB00015FAAA494031886002990919891B4810FD
:102FC000022107F00BFAA5494031C860A819322147
:102FD000FEF76EFF0121019007F000FA9F49403192
:102FE0000861A819322100E00AE0FEF761FF022122
:102FF000019007F0F3F999494031486105B0F0BDFF
:10300000049801287DD1954A4032D16A906A052200
:1030100007F0FEF90390914A4032D1699069052288
:1030200007F0F6F907468D4A803203CA052207F0F9
:10303000EFF90546894A4032516B106B052207F0C3
:10304000E7F90646854A4032D16B906B052207F0BE
:10305000DFF90446814A4032516A106A052207F0BE
:10306000D7F90290E919091B4810012107F0B6F9B8
:103070007A4980318860E919091B4810022107F05C
:10308000ADF976498031C8603919491B48100121D2
:1030900007F0A4F97149803108613919491B4810BA
:1030A000022107F09BF96D4980314861029971183E
:1030B000091B4810012107F091F9684980318861A6
:1030C00002997118091B4810022107F087F963491A
:1030D0008031C86102990919891B4810012107F044
:1030E0007DF95E498031086202990919891B4810EF
:1030F000022107F073F9594980314862A819322139
:1031000000E014E0FEF7D4FE0121019007F066F91B
:10311000524980318862A8193221FEF7C9FE022186
:10312000019007F05BF94D498031C86266E7049869
:1031300002287DD1494AC03203CA052207F068F946
:103140000390464A8032516B106B052207F060F9FC
:103150000746424AC032D1699069052207F058F902
:1031600005463E4AC032D1689068052207F050F902
:1031700006463A4AC03251691069052207F048F9FB
:103180000446364A8032D16B906B052207F040F935
:103190000290E919091B4810012107F01FF92F4976
:1031A000C0310862E919091B4810022107F016F91D
:1031B0002A49C03148623919491B4810012107F0DA
:1031C0000DF92649C03188623919491B481002217E
:1031D00007F004F92149C031C86202997118091B2E
:1031E0004810012107F0FAF81C49C0310863029920
:1031F0007118091B4810022107F0F0F81749C03177
:10320000486302990919891B4810012107F0E6F863
:103210001249C031886302990919891B481002219B
:1032200007F0DCF80D49C031C863A819322100E06D
:1032300012E0FEF73DFE0121019007F0CFF80849AA
:103240000860A8193221FEF733FE0221019007F031
:10325000C5F803494860D1E600BFCFE6C019002099
:10326000C01A0020002804D100210B4A51601160CF
:103270007047012805D10021074A4032D161916190
:10328000F6E7022805D10021034A80325163116319
:10329000EEE700BFECE70000C0190020002804D1D1
:1032A00000210B4AD16091607047012805D10021AF
:1032B000074A403251621162F6E7022805D1002127
:1032C000034A8032D1639163EEE700BFECE7000070
:1032D000C0190020F3B581B0029800281CD1474ADC
:1032E000516A106A052207F093F80446434AD16AEE
:1032F000906A052207F08CF80546404A516B106B26
:10330000052207F085F806463D4A1169D068052276
:1033100007F07EF8074643E0029801281FD1374A9C
:103320004032D16A906A052207F072F80446334AA7
:103330004032516B106B052207F06AF805462F4AA0
:103340004032D16B906B052207F062F806462C4A9A
:1033500091695069052207F05BF8074620E0029862
:1033600002281DD1254A8032516B106B052207F0CF
:103370004FF80446214A8032D16B906B052207F04A
:1033800047F805461D4AC03203CA052207F040F837
:1033900006461B4A116AD069052207F039F807462C
:1033A0000199091B174A514308463946FEF780FD2B
:1033B000711B88420FDC0199091B124A51430846D0
:1033C0003946FEF775FD711B081A009000984004FD
:1033D000400C009010E00199091B0A4A514308462D
:1033E0003946FEF765FD711B401A80B2009001213D
:1033F000C9030098084300900098FEBD40170020C4
:1034000000100020581B000038B55E4800780028E6
:1034100004D0012807D0022816D10CE00021032097
:1034200005F028F914E0002003460122114600901F
:1034300005F046F90CE00020012302460146009009
:10344000184605F03DF903E000204E49087000BF22
:1034500000BF4D4801784D48007804F0E1FD4C492B
:1034600008800846008800287EDD46480078401E17
:10347000002804D0012806D002287CD116E00020C4
:1034800005F09EF97BE0002005F06AFB414AD16B14
:10349000906B052206F0BCFF0446002100F016FEEA
:1034A0003D490880002005F0A9FB68E0002005F0F8
:1034B0000DFD384AD16B906B042206F0A9FF04463B
:1034C000002100F003FE34490880002005F068FD6B
:1034D000324A03CA042206F09BFF04462F4A03CA5D
:1034E000052206F095FF0546214606F0A7FF0128B4
:1034F00009D10020FFF7B6FE2948806A90210843D1
:10350000274988621BE0234AD16B906B052206F0A5
:103510007FFF04460021FFF7DDFE224908800122DB
:1035200008212048008801F09BF8002807D11D4899
:10353000008800121A4948631A48007888630120FD
:103540001749403188611848006808210843164926
:10355000086000200B4908701148406A80218843A8
:103560000F494862002101E00AE004E0FF20013039
:1035700002F088F903E000200249087000BF00BF94
:1035800038BD0000180000201A000020190000209B
:103590002C000020401700202E000020C019002021
:1035A00000100020300000201400002038B57D48B5
:1035B0000078030005F0D6FF050409111A1F2E003C
:1035C0000021032005F056F828E0002003460122E0
:1035D0001146009005F074F820E000200123024617
:1035E00001460090184605F06BF817E00121032012
:1035F00005F040F812E06C48C068202188436A4911
:10360000C86001200023024601460090184605F0DC
:1036100057F803E000206349087000BF00BF63480B
:1036200001786348007804F0FBFC62490880084692
:103630000088002874DD5B480078401E030005F018
:1036400091FF0504081B6B70AB00002005F0B8F873
:10365000A6E0002005F084FA574AD16B906B052252
:1036600006F0D6FE0446002100F030FD53490880E4
:10367000002005F0C3FA93E0002005F027FC4E4A35
:10368000D16B906B042206F0C3FE0446002100F0CB
:103690001DFD4A490880002005F082FC484A03CA03
:1036A000042206F0B5FE0446454A03CA052206F088
:1036B000AFFE0546214606F0C1FE01280BD10020D1
:1036C000FFF7D0FD38484038806A902108433649DA
:1036D000403988621CE0384AD16B906B052206F0B5
:1036E00097FE04460021FFF7F5FD364908800122C8
:1036F00008213448008800F0B3FF002808D1314881
:10370000008800122849403948632E4800788863B1
:1037100001202549886100BF012005F051F83FE0F4
:103720003FE0012005F01CFA234A803203CA05223B
:1037300006F06EFE04460121FFF7CCFD214908800A
:10374000012210211F48008800F08AFF002809D1BB
:103750001C480088001214494039C8631948007891
:103760001149086010201049886117480068082135
:1037700008431549086000200A4908700A48403883
:10378000406A802188430849403948620021FF206F
:10379000013002F077F803E000200249087000BF12
:1037A00000BF38BD18000020401000201A00002083
:1037B000190000202C000020401700202E000020BF
:1037C000C0190020300000201400002038B59C48AB
:1037D0000078030005F0C6FE07050A121B202F34EF
:1037E00043000021032004F045FF3CE00020034695
:1037F00001221146009004F063FF34E00020012311
:10380000024601460090184604F05AFF2BE00121C1
:10381000032004F02FFF26E08A48C0682021884357
:103820008849C860012000230246014600901846DE
:1038300004F046FF17E00221032004F01BFF12E012
:103840008048C068202188437E49C8600220002348
:10385000012211460090184604F032FF03E00020D8
:103860007749087000BF00BF774801787748007833
:1038700004F0D6FB7649088008460088002875DDEC
:103880006F480078401E030005F06CFE0705091C18
:103890006C71969AD400002004F092FFCEE00020D4
:1038A00005F05EF96B4AD16B906B052206F0B0FD16
:1038B0000446002100F00AFC67490880002005F05A
:1038C0009DF9BBE0002005F001FB624AD16B906BD3
:1038D000042206F09DFD0446002100F0F7FB5E493E
:1038E0000880002005F05CFB5C4A03CA042206F055
:1038F0008FFD0446594A03CA052206F089FD054694
:10390000214606F09BFD01280BD10020FFF7AAFC01
:103910004C484038806A902108434A4940398862BF
:103920001CE04C4AD16B906B052206F071FD0446F9
:103930000021FFF7CFFC4A490880012208214848AE
:10394000008800F08DFE002808D14548008800124C
:103950003C4940394863424800788863012039492E
:10396000886100BF012004F02BFF67E067E00120C1
:1039700005F0F6F8374A803203CA052206F048FD02
:1039800004460121FFF7A6FC3549088001221021D9
:103990003348008800F064FE002809D130480088D0
:1039A000001228494039C8632D480078254908602D
:1039B00010202449886100BF022004F001FF3DE08F
:1039C000022005F0CDF8234AC032D1689068052264
:1039D00006F01EFD04460221FFF77CFC204908800A
:1039E000012218211E48008800F03AFE002807D165
:1039F0001B48008800121349486019480078886005
:103A000011201049886117480068082108431549AA
:103A1000086000200A4908700A484038406A80213E
:103A200088430849403948620021FF20013001F0F5
:103A300029FF03E000200249087000BF00BF38BD25
:103A400018000020401000201A000020190000205B
:103A50002C000020401700202E000020C01900205C
:103A6000300000201400002038B55E48007800289F
:103A700004D0012807D0022817D10DE0002103202F
:103A800004F0F8FD15E00020022303221146009007
:103A9000184604F015FE0CE0002003230222114614
:103AA0000090184604F00CFE03E000204D49087019
:103AB00000BF00BF4C4801784C48007804F0B0FAD1
:103AC0004B4908800846008800287DDD454800787D
:103AD000401E002804D0012806D002287BD115E022
:103AE000002004F06DFE7AE0002005F0D7FB414A8B
:103AF00003CA052206F08CFC0446002100F0E6FA19
:103B00003D490880002005F017FC68E0002005F022
:103B100053FC384A03CA042206F07AFC044600210A
:103B200000F0D4FA34490880002005F0AFFC334A95
:103B3000D1689068042206F06BFC04462F4AD168D5
:103B40009068052206F064FC0546214606F076FCE6
:103B5000012809D10020FFF7A1FB2948806A9021A4
:103B60000843274988621AE0224A03CA052206F060
:103B70004FFC04460021FFF7ADFB224908800122DB
:103B800008212048008800F06BFD002807D11D485F
:103B9000008800121A4948631A4800788863012097
:103BA00017494031886118480068082108431649C0
:103BB000086000200B4908701148406A8021884342
:103BC0000F494862002101E00AE004E0FF200130D3
:103BD00001F058FE03E000200249087000BF00BF5A
:103BE00038BD0000180000201A0000201900002035
:103BF0002C000020801700202E000020C01900207B
:103C000000100020300000201400002038B57E484D
:103C10000078030005F0A6FC050409121B202F0004
:103C20000021032004F026FD29E0002002230322C6
:103C300011460090184604F043FD20E000200323C5
:103C4000022211460090184604F03AFD17E00121C7
:103C5000032004F00FFD12E06C48C0681021884377
:103C60006A49C860012002230322114600901846C9
:103C700004F026FD03E000206349087000BF00BF88
:103C8000634801786348007804F0CAF96249088003
:103C900008460088002873DD5B480078401E03005A
:103CA00005F060FC0504081A6A6FAB00002004F000
:103CB00087FDA6E0002005F0F1FA584A03CA052264
:103CC00006F0A6FB0446002100F000FA54490880E3
:103CD000002005F031FB94E0002005F06DFB4F4A19
:103CE00003CA042206F094FB0446002100F0EEF91A
:103CF0004B490880002005F0C9FB4A4AD16890680A
:103D0000042206F085FB0446464AD16890680522E5
:103D100006F07EFB0546214606F090FB01280BD1FC
:103D20000020FFF7BBFA39484038806A90210843E9
:103D30003649403988621BE0384A03CA052206F03A
:103D400067FB04460021FFF7C5FA374908800122C6
:103D500008213548008800F083FC002808D132484B
:103D6000008800122949403948632F480078886349
:103D700001202649886100BF012004F021FD40E0B8
:103D800040E0012005F08AFA244A4032D168906868
:103D9000052206F03DFB04460121FFF79BFA22496C
:103DA0000880012210212048008800F059FC0028DA
:103DB00009D11D480088001214494039C8631A48C7
:103DC000007812490860102010498861174800687F
:103DD000082108431549086000200B4908700B486A
:103DE0004038406A802188430849403948620021B0
:103DF000FF20013001F046FD03E000200249087079
:103E000000BF00BF38BD0000180000204010002097
:103E10001A000020190000202C000020801700202C
:103E20002E000020C01900203000002014000020C7
:103E300038B59C480078030005F094FB07050A1389
:103E40001C21303543000021032004F013FC3CE02A
:103E500000200223032211460090184604F030FC93
:103E600033E000200323022211460090184604F09C
:103E700027FC2AE00121032004F0FCFB25E08A480E
:103E8000C068102188438849C860012002230322AA
:103E900011460090184604F013FC16E0022103209E
:103EA00004F0E8FB11E08048C068102188437E4997
:103EB000C8600220034603221146009004F000FC73
:103EC00003E000207749087000BF00BF7748017801
:103ED0007748007804F0A4F87649088008460088FE
:103EE000002874DD6F480078401E030005F03AFB9F
:103EF0000705091B6B70969AD400002004F060FC43
:103F0000CEE0002005F0CAF96B4A03CA052206F08C
:103F10007FFA0446002100F0D9F8684908800020A3
:103F200005F00AFABCE0002005F046FA624A03CA2E
:103F3000042206F06DFA0446002100F0C7F85F493C
:103F40000880002005F0A2FA5D4AD168906804223A
:103F500006F05EFA04465A4AD1689068052206F0D7
:103F600057FA0546214606F069FA01280BD10020D0
:103F7000FFF794F94C484038806A902108434A4939
:103F8000403988621BE04C4A03CA052206F040FA19
:103F900004460021FFF79EF94A49088001220821C2
:103FA0004848008800F05CFB002808D1454800889C
:103FB00000123D4940394863424800788863012037
:103FC0003949886100BF012004F0FAFB68E068E02D
:103FD000012005F063F9384A4032D1689068052223
:103FE00006F016FA04460121FFF774F935490880F6
:103FF000012210213348008800F032FB002809D14B
:1040000030480088001228494039C8632D4800789C
:104010002549086010202449886100BF022004F06F
:10402000CFFB3DE0022005F039F9234A8032516987
:104030001069052206F0ECF904460221FFF74AF95F
:1040400020490880012218211E48008800F008FB42
:10405000002807D11B4800880012134948601948FE
:10406000007888601120104988611748006808218D
:1040700008431549086000200A4908700A4840387A
:10408000406A802188430849403948620021FF2066
:10409000013001F0F7FB03E000200249087000BF87
:1040A00000BF38BD18000020401000201A0000207A
:1040B000190000202C000020801700202E00002076
:1040C000C01900203000002014000020F3B581B09A
:1040D000029800281DD1D94A516A106A052206F0BB
:1040E00097F90446D54AD16A906A052206F090F9FC
:1040F0000546D24A516B106B052206F089F9064637
:10410000CF4A916B506B052206F082F9CD490880A9
:1041100048E00298012822D1C84A4032D16A906A08
:10412000052206F075F90446C44A4032516B106B03
:10413000052206F06DF90546C04A4032D16B906BFE
:10414000052206F065F90646BD4A40321168BC4AB0
:10415000D06B052206F05CF9BA49088022E002988B
:1041600002281FD1B54A8032516B106B052206F030
:104170004FF90446B14A8032D16B906B052206F0AC
:1041800047F90546AD4AC03203CA052206F040F998
:104190000646AB4A403291685068052206F038F96D
:1041A000A8490880A648808C0006C00F002802D0CD
:1041B0000020A4490880A448006820218843A2491F
:1041C000086008460068402188439F490860084607
:1041D0000068802188439C49086099484030006904
:1041E0008021884396494031086108460069402192
:1041F000884393494031086108460069202188437B
:104200008F49403108610198A0424DDC8C4800780C
:104210000006C00F002823D08B48006820210843E7
:1042200089490860084600680421084386490860F7
:104230000020864908708248403000698021084388
:104240007F49403108617E480068802188437C496D
:1042500008600021FF20013001F014FB0020FEBDAA
:1042600079480068202108437749086008460068BB
:104270000821084374490860002074490870704898
:1042800040300069802108436D49403108616C4825
:10429000406A802188436A4948620021FF2001303A
:1042A00001F0F0FA0020DAE766480088C013002821
:1042B00013D0644800880121C903401A614908806D
:1042C000721B0B461B88D118019A121B604B5A4374
:1042D0001046FDF7EDFD87B20BE0721B594B1B88B2
:1042E000D11A019A121B5A4B5A431046FDF7E0FDB2
:1042F00087B2584887424DDB514800780006C00F0E
:10430000002823D050480068402108434E490860E7
:1043100008460068042108434B49086000204B49C7
:104320000870474840300069202108434449403123
:1043300008614348006880218843414908600021A2
:10434000FF20013001F09EFA002088E73E48006817
:10435000402108433C49086008460068082108439A
:1043600039490860002039490870354840300069F3
:10437000202108433249403108613148406A802198
:1043800088432F4948620021FF20013001F07AFA6A
:10439000002064E77D20000187424DDC284800783A
:1043A0000006C00F002823D027480068802108435A
:1043B000254908600846006804210843224908602E
:1043C0000020224908701E484030006940210843FF
:1043D0001B49403108611A48006880218843184908
:1043E00008600021FF20013001F04CFA002036E780
:1043F0001548006880210843134908600846006892
:1044000008210843104908600020104908700C4832
:10441000403000694021084309494031086108489B
:10442000406A80218843064948620021FF2001300C
:1044300001F028FA002012E7384610E74017002064
:104440000010002030000020140000201800002080
:10445000581B0000983A000010B51A480078C007B1
:10446000C00F00282BD0174800780007C00F002885
:1044700000D010BD14480078030005F073F8090659
:104480000A070D110E1418151B0000BFFFF7ECFAF8
:1044900014E0FEF7B9FF11E000BFFFF7B7FB0DE036
:1044A000FFF784F80AE000BFFFF7C2FC06E0FFF761
:1044B0008DF903E002200449087000BF00BF00BF6F
:1044C000D7E70000140000204A00002010B5044681
:1044D00021480078C007C00F002821D01E4800786E
:1044E000400840001C49087000221146204600F098
:1044F000B7F8012800D110BD184800781849486065
:1045000006F0A6FD16484030C06880218843144953
:104510004031C860134800684008400011490860F5
:104520000D4800788007C00F002813D00A48007893
:10453000022188430849087000220421204600F027
:104540008FF8012800D1D6E7044800790449886033
:1045500006F07EFD00BFCEE74D0000208801002060
:1045600000100020140000200D4800BF002102C0F0
:104570000B493031091AF9D10948483000BF0021F0
:1045800002C007497831091AF9D10548903000BFB7
:10459000002102C00349091AFAD102C07047000085
:1045A000781700205C190020044800BF002102C0D9
:1045B0000349091AFAD102C0704700000010002018
:1045C000BC1B0020044800BF002102C00349091A97
:1045D000FAD102C070470000601500205C1700206F
:1045E000044800BF002102C00349091AFAD102C0E1
:1045F00070470000C0190020BC1B0020044800BF09
:10460000002102C00349091AFAD102C07047000014
:10461000601300205C150020044800BF002102C088
:1046200002493031091AF9D102C0704774110020D3
:10463000044800BF002102C002493031091AF9D1F3
:1046400002C07047A4110020044800BF002102C02E
:1046500002493031091AF9D102C07047D411002043
:1046600070B505460C461646002E39D1404A012148
:1046700049027720400200F075FF7720400200F0E9
:1046800001FFE8B23A4908553A490855384A01212C
:1046900049027720400200F0B5FF354A0121490266
:1046A0007720400200F05EFF3148005D3149095D2E
:1046B00088420DD030484069102108432E49486196
:1046C00008464069202188432B494861012070BD7C
:1046D0002948406930218843274948610020F6E78E
:1046E000234A012149027720400200F03BFF772056
:1046F000400200F0C7FE28121D4908551D49085503
:10470000E9B21B4A201D11541A4A1154184A0121BA
:1047100049027720400200F075FF154A0121490245
:104720007720400200F01EFF1148005D1149095D2D
:10473000884206D10E49201D095C0E4A105C814258
:104740000DD00D484069102108430B4948610846C7
:10475000406920218843084948610120B7E706489D
:10476000406930218843044948610020AFE70000D8
:10477000880100208803002040100020F3B583B09A
:104780000498002829D1FE4A51691069052205F0D4
:104790003FFE0646FA4A03CA052205F039FE0446E2
:1047A000F74AD16A906A052205F032FE0746F44ABC
:1047B000D1699069052205F02BFE0290F04A516AFA
:1047C000106A052205F024FE0190ED4AD168906838
:1047D000052205F01DFE054664E0049801282FD14E
:1047E000E74A4032D16A906A052205F011FE06467A
:1047F000E34A4032D1699069052205F009FE04467A
:10480000DF4A803203CA052205F002FE0746DC4A71
:104810004032516B106B052205F0FAFD0290D84A28
:104820004032D16B906B052205F0F2FD0190D44A25
:104830004032516A106A052205F0EAFD054631E072
:10484000049802282ED1CE4AC03203CA052205F0B0
:10485000DFFD0646CA4A8032516B106B052205F017
:10486000D7FD0446C64AC032D1699069052205F0D9
:10487000CFFD0746C24AC032D1689068052205F0D4
:10488000C7FD0290BE4AC03251691069052205F089
:10489000BFFD0190BA4A8032D16B906B052205F0C2
:1048A000B7FD05460398030004F05CFE09061F38B7
:1048B000829BB4F4F3F21E00B248007B012811D1B0
:1048C000B148808881B2284600F0E0FEAD494881B9
:1048D000AE480078002801D1FFF79EFE0020A949CC
:1048E000087301E0A74845816DE1A648007B0128D7
:1048F00011D1A548008981B2204600F0C7FEA14928
:104900000880A2480078012801D1FFF785FE002029
:104910009C49087301E09B48048054E19948007B5E
:10492000012839D19848008981B2204600F0AEFEB6
:10493000944908809448808981B2304600F0A6FEF0
:10494000904948809048008A81B2384600F09EFE27
:104950008C4988808C48008B81B2019800F096FECB
:10496000884908818848808881B2284600F08EFEF8
:10497000844948818448808A81B2029800F086FE8A
:104980008049C88081480078022801D1FFF744FEA1
:1049900000207C4908730AE07A48048046808780BA
:1049A000784901980881084645810298C8800AE143
:1049B0007748007B012811D17348808B81B228464B
:1049C00000F064FE7249488170480078032801D1E4
:1049D000FFF72EFE00206E49087301E06C48458108
:1049E000F1E06B48007B012811D16748008C81B24F
:1049F000204600F04BFE6649088064480078042891
:104A000001D1FFF715FE00206149087301E06048FD
:104A10000480D8E05E48007B01283CD15A48008CD5
:104A200081B2204600F032FE594908805648808CF9
:104A300081B2304600F02AFE554948805248008D28
:104A400081B2384600F022FE514988804E48008EDF
:104A500081B2019800F01AFE4D4908814A48808BC6
:104A600081B2284600F012FE494948814648808DAF
:104A700081B2029800F00AFE4549C8804348007898
:104A8000052801D1FFF7D4FD0020414908730DE04E
:104A90003FE025E00BE03E480480468087803C49AB
:104AA00001980881084645810298C8808BE0394802
:104AB000007B012811D13448808E81B2284600F055
:104AC000E5FD3449488131480078062801D1FFF7D7
:104AD000BBFD00202F49087301E02E48458172E09C
:104AE0002C48007B012811D12748008F81B2204635
:104AF00000F0CCFD2749088024480078072801D120
:104B0000FFF7A2FD00202349087301E0214804803B
:104B100059E02048007B012849D11B48008F81B211
:104B2000204600F0B3FD1B4908801748808F81B2F2
:104B3000304600F0ABFD17494880134840300088EC
:104B400081B2384600F0A2FD124988800E484030FC
:104B5000008981B2019800F099FD0E4908810A4848
:104B6000808E81B2284600F091FD0A4948810648AE
:104B70004030808881B2029800F088FD05490BE042
:104B8000C019002050010020001200204A0000201F
:104B90005E0100206C010020C8800C4800780828C5
:104BA00001D1FFF751FD0020094908730AE00848C8
:104BB000048046808780064901980881084645811F
:104BC0000298C88000BF00BF05B0F0BD4A000020B9
:104BD0006C01002011B582B00298030004F0C2FC01
:104BE00009061F38FDFCFBFAF9F81E00FE48806B31
:104BF0000190FD48406B05220090019905F008FCEA
:104C0000F949C031486008464068002803D00120B7
:104C1000F649087302E00020F4490873BBE2F24849
:104C2000806B0190F048406B05220090019905F0DF
:104C3000EFFBED49C031886008468068002803D04A
:104C40000120EA49087302E00020E8490873A2E263
:104C5000E548403000680190E348C06B05220090B1
:104C6000019905F0D5FB00287EDDDF4840308068E3
:104C70000190DD484030406805220090019905F020
:104C8000C7FB0028F0DDD848403000690190D648C5
:104C90004030C06805220090019905F0B9FB00285A
:104CA000E2DDD148403080690190CF484030406912
:104CB00005220090019905F0ABFB0028D4DDCA481D
:104CC0004030006A0190C8484030C0690522009019
:104CD000019905F09DFB0028C6DDC34840300069FE
:104CE0000190C1484030C06805220090019905F04C
:104CF0008FFB0446BC48403080690190BA48403080
:104D0000406905220090019905F082FB2018B64900
:104D1000C0314860B448403000680190B248C06B70
:104D200005220090019905F073FB0446AE4840301F
:104D300080680190AC48403040680522009001999D
:104D400005F066FB2018A849C0318860A6484030AD
:104D500080680190A4484030406805220090019985
:104D600005F056FB044600E0A3E09F484030006990
:104D700001909D484030C06805220090019905F0DF
:104D800047FB241898484030006A0190964840300C
:104D9000C06905220090019905F03AFB201892495C
:104DA000C031486190484030806801908E48403062
:104DB000406805220090019905F02AFB04468A48C4
:104DC000403080690190884840304069052205E004
:104DD00018E2FCE1E0E1A6E08AE06EE000900199D3
:104DE00005F016FB241880484030006A01907E4888
:104DF0004030C06905220090019905F009FB201898
:104E00007949C0318861784840300068019076481F
:104E1000C06B05220090019905F0FAFA0446724829
:104E20004030806901907048403040690522009010
:104E3000019905F0EDFA24186B484030006A0190A2
:104E400069484030C06905220090019905F0E0FAF8
:104E500020186549C03108616348403000680190FE
:104E60006148C06B05220090019905F0D1FA044613
:104E70005D484030006901905B484030C0680522C1
:104E80000090019905F0C4FA241857484030006A90
:104E9000019055484030C06905220090019905F005
:104EA000B7FA20185049C031C86001204F49087333
:104EB00002E000204D490873DCE24B484030806A34
:104EC000019049484030406A05220090019905F060
:104ED0009FFA4549C031C8610846C069002803D01F
:104EE00001204349087302E0002041490873C1E2F0
:104EF0003D484030806A01903B484030406A05227E
:104F00000090019905F084FA3749C03108620846DB
:104F1000006A002803D001203549087302E0002010
:104F200033490873A6E230484030006B01902E48A8
:104F30004030C06A05220090019905F069FA002806
:104F40007EDD29484030806B019027484030406B1F
:104F500005220090019905F05BFA0028F0DD224857
:104F600080300068019020484030C06B05220090DE
:104F7000019905F04DFA0028E2DD1B488030806879
:104F8000019019488030406805220090019905F091
:104F90003FFA0028D4DD144880300069019012489F
:104FA0008030C06805220090019905F031FA002890
:104FB000C6DD0D488030006801900B484030C06B62
:104FC00005220090019905F023FA04460648803036
:104FD0008068019004488030406805220090019963
:104FE00005F016FA201805E04011002050010020BD
:104FF0005E010020FE49C031C861FD484030006BB1
:105000000190FB484030C06A05220090019905F0EC
:10501000FFF90446F6484030806B0190F448403078
:10502000406B05220090019905F0F2F92018F04933
:10503000C0310862EE484030806B0190EC4800E0DF
:10504000A6E04030406B05220090019905F0E0F9A0
:105050000446E748803000680190E5484030C06B66
:1050600005220090019905F0D3F92418E04880301A
:1050700000690190DE488030C068052200900199E7
:1050800005F0C6F92018DA49C031C862D848403066
:10509000806B0190D6484030406B0522009001990A
:1050A00005F0B6F90446D248803080680190D048B7
:1050B0008030406805220090019905F0A9F9241874
:1050C000CB48803000690190C9488030C068052213
:1050D0000090019905F09CF92018C549C03108637A
:1050E000C3484030006B0190C1484030C06A05227F
:1050F0000090019905F08CF90446BD488030806825
:105100000190BB488030406805220090019905F06D
:105110007FF92418B648803000690190B448803087
:10512000C06805220090019905F072F92018B04975
:10513000C0318862AE484030006B0190AC484030CE
:10514000C06A05220090019905F062F90446A8485A
:10515000803000680190A6484030C06B0522009066
:10516000019905F055F92418A14880300069019093
:105170009F488030C06805220090019905F048F9E9
:1051800020189B49C031486201209A49087302E007
:105190000020984908736DE195488030806901903E
:1051A00093488030406905220090019905F030F95C
:1051B0008F49C03148630846406B002803D0012066
:1051C0008D49087302E000208B49087352E188483A
:1051D00080308069019086488030406905220090C7
:1051E000019905F015F98249C03188630846806B42
:1051F000002803D001208049087302E000207E4986
:10520000087337E17A488030006A0190784880302E
:10521000C06905220090019905F0FAF800287CDDAC
:1052200073488030806A019071488030406A05225E
:105230000090019905F0ECF80028F0DD6C48803012
:10524000006B01906A488030C06A05220090019985
:1052500005F0DEF80028E2DD65488030806B0190C3
:1052600063488030406B05220090019905F0D0F82A
:105270000028D4DD5E48C030006801905C48803072
:10528000C06B05220090019905F0C2F80028C6DD28
:1052900057488030006B019055488030C06A052225
:1052A0000090019905F0B4F8044651488030806BB5
:1052B00001904F488030406B05220090019905F025
:1052C000A7F820184A49C031486349488030006A2D
:1052D000019047488030C06905220090019905F08F
:1052E00097F8044642488030806A019040488030F8
:1052F000406A05220090019905F08AF820183C497F
:10530000C03188633A488030806A019038488030E4
:10531000406A05220090019900E0A7E005F078F8C6
:10532000044633488030006B019031488030C06AB9
:1053300005220090019905F06BF824182C48C03024
:10534000006801902A488030C06B052200900199C6
:1053500005F05EF820182949486025488030806AA9
:10536000019023488030406A05220090019905F0A1
:105370004FF804461E488030806B01901C488030F6
:10538000406B05220090019905F042F824181B4853
:1053900040380068019016488030C06B05220090AC
:1053A000019905F035F820181449886010488030BC
:1053B000006A01900E488030C06905220090019972
:1053C00005F026F804460A488030806B01900848B2
:1053D0008030406B05220090019905F019F82418DF
:1053E000064840380068019001488030C06B07E0F3
:1053F000401100205E0100206C01002040120020BE
:1054000005220090019905F003F820181A49086058
:1054100019488038006A019017488038C069052211
:105420000090019904F0F4FF044613488038006BA3
:10543000019011488038C06A05220090019904F05B
:10544000E7FF24180C484038006801900A4880386B
:10545000C06B05220090019904F0DAFF201806497C
:105460004039C86301200549087302E00020034960
:10547000087300BF00BF1EBD401200206C01002059
:105480007047000070B5044603F00AF9002500BF1C
:1054900015480069C007C00F0028F9D1124880697B
:1054A00040210843104988612220C86060198008A3
:1054B000800048600120086100BF00BF0A48006901
:1054C000C007C00F0028F9D1074880694021084073
:1054D000002806D0044880690843034988610120F8
:1054E00070BD0020FCE7000000C0005010B504466D
:1054F00003F0D6F800201A49086008460068012128
:1055000008431749086008460068217809020843E3
:10551000134908606078002805D10846006880219A
:1055200008430F490860A078012805D10C4800689D
:10553000202108430A490860E078012805D108487D
:10554000006810210843064908602079012805D128
:1055500003480068082108430149086010BD0000A5
:1055600000C00050FEB505460C461646009603F0F6
:1055700097F800200190E01C8008800084B200BFF2
:105580001F480069C007C00F0028F9D11C48806976
:10559000402108431A49886100272CE0002018495F
:1055A000C860019828188008800048600020886042
:1055B0000120086100BF00BF11480069C007C00F8B
:1055C0000028F9D10E48806940210840002806D003
:1055D0000B48806908430A4988612846FEBD08488F
:1055E00082683846791C8FB28100009842502D1D88
:1055F000361D201F84B2002CD0D12846EEE70000D3
:1056000000C00050F8B505460C46164603F048F8B1
:105610000027E01C8008800084B200BF1A4800699F
:10562000C007C00F0028F9D11748806940210843FE
:105630001549886123E021201349C860E8198008D2
:1056400080004860306888600120086100BF00BFAA
:105650000D480069C007C00F0028F9D10A488069C9
:1056600040210840002806D00748806908430649C1
:1056700088610120F8BD2D1D361D201F84B2002C2D
:10568000D9D10020F6E7000000C00050FFB5034666
:105690000A4693423CDB981A81B2F02908DCC8170D
:1056A000000F40180011801880B2039104B0F0BDC3
:1056B000F0290BDDFF204130814207DC0C46C81782
:1056C000800F00198010801880B2EFE7FF20413072
:1056D000814209DD4000814206DCC80F40184010BD
:1056E000801880B20291E1E70520C00181420DDD02
:1056F000244881420ADC5800181880180190C0170D
:10570000850F019828188003000CCFE71846CDE7D5
:10571000D01A81B2F02907DC0D46C817000F4019D6
:105720000011101A80B2C1E7F0290BDDFF204130D3
:10573000814207DCC817800F40188010101A80B211
:105740000091B3E7FF204130814209DD40008142F2
:1057500006DC0E46C80F80194010101A80B2A5E76B
:105760000520C00181420BDD0648814208DC58005B
:1057700018188718F817800FC0198003000C95E7D8
:10578000184693E77A03000010B502460021002076
:105790000AE013460341DB07DB0F002B02D0012395
:1057A00083401943431CD8B21028F2DB0904034B91
:1057B0005B680B43014C636010BD0000004000506B
:1057C000014600200EE00A460241D207D20F002A0D
:1057D00006D0064A526A012383409A43034B5A6219
:1057E000421CD0B21028EEDB704700000040005091
:1057F000014600200EE00A460241D207D20F002ADD
:1058000006D0064A526A012383401A43034B5A6268
:10581000421CD0B21028EEDB704700000040005060
:1058200001460548006982B210460840002801D0B0
:10583000012070470020FCE70040005030B50246D0
:1058400000201AE013460341DB07DB0F002B12D0C8
:10585000012908D10A4B1B6845000124AC402343B1
:10586000074C236007E0064B1B6845000124AC4051
:10587000A343034C2360431CD8B20D28E2DB30BDA8
:10588000004000500A460021064B9968002A03D0C8
:105890000B460343194602E00B4683431946014B6E
:1058A000996070470040005038B5BC48007803004C
:1058B00003F058FE09060B141D252E363E475000F6
:1058C0000021032002F0D6FE48E00020022303223C
:1058D00011460090184602F0F3FE3FE0002003233B
:1058E000022211460090184602F0EAFE36E000203F
:1058F000034601221146009002F0E2FE2EE0002055
:105900000123024601460090184602F0D9FE25E028
:105910000020034602221146009002F0D1FE1DE055
:105920000020034603221146009002F0C9FE15E054
:1059300000200123022211460090184602F0C0FE0A
:105940000CE000200123032211460090184602F0CB
:10595000B7FE03E000209149087000BF00BF9048E7
:1059600001789048007802F05BFB8F490880084678
:10597000008800287EDD89480078401E030003F07F
:10598000F1FD09060A1C516592A5B8CBFD00002067
:1059900002F016FFFFE0002003F080FC834A03CAF8
:1059A000052204F035FD04460021FEF78FFB8049F7
:1059B0000880002003F0C0FCEDE0002003F0FCFCB8
:1059C0007A4A03CA042204F023FD04460021FEF7AC
:1059D0007DFB77490880002003F058FD754AD168A7
:1059E0009068042204F014FD0446724AD16890685D
:1059F000052204F00DFD0546214604F01FFD012897
:105A000005D10020FDF74AFC01206B498861002088
:105A1000FFF7E0F800210846FEF7B0FE002004F092
:105A2000C5FEB8E0002003F09BF8604A403AD16B15
:105A3000906B052204F0ECFC04460021FEF746FBC7
:105A40005B490880002003F0D9F8A4E0002003F0AF
:105A50003DFA564A403AD16B906B042204F0D8FCD0
:105A600004460021FEF732FB51490880002003F074
:105A700097FA00E090E04F4A03CA042204F0C8FC01
:105A800004464C4A03CA052204F0C2FC05462146DE
:105A900004F0D4FC012805D10020FDF7E3FB012030
:105AA0004549886177E0002003F0E8F83F4AD16873
:105AB0009068052204F0ACFC04460021FEF706FBCA
:105AC0003B490880002003F02DF964E0002003F03A
:105AD00069F9364A516A106A052204F099FC0446B5
