:020000040800F2
:10000000F8070020611600089D0200089F02000802
:10001000A3020008A7020008AB02000800000000CD
:10002000000000000000000000000000AF02000817
:10003000B102000800000000B3020008B502000889
:100040007B1600087B1600087B1600087B1600084C
:100050007B1600087B1600087B1600087B1600083C
:100060007B1600087B1600087B1600087B1600082C
:100070007B1600087B1600087B1600087B1600081C
:100080007B1600087B1600087B1600087B1600080C
:100090007B1600087B1600087B1600087B160008FC
:1000A0007B1600087B1600087B1600087B160008EC
:1000B0007B1600087B1600087B1600087B160008DC
:1000C0007B1600087B1600087B1600087B160008CC
:1000D0007B160008D71500087B1600087B16000861
:1000E000E90200087B1600087B1600087B16000852
:1000F0007B1600087B1600087B1600087B1600089C
:100100007B1600087B1600087B1600087B1600088B
:100110007B1600087B160008B70200087B16000853
:100120007B1600087B1600087B1600087B1600086B
:1001300000F002F800F04AF80AA090E8000C8244AF
:100140008344AAF10107DA4501D100F03FF8AFF28C
:10015000090EBAE80F0013F0010F18BFFB1A43F0A5
:10016000010318472C4500004C450000103A24BFFD
:1001700078C878C1FAD8520724BF30C830C144BF0C
:1001800004680C607047000000230024002500264E
:10019000103A28BF78C1FBD8520728BF30C148BFEA
:1001A0000B607047662904F02582642903F01A80E9
:1001B000002070471FB503F08BFB040000200021D6
:1001C00004F0ECF8E0601FBD10B510BD03F0A4FC16
:1001D0001146FFF7EFFF00F009F803F0C2FC03B48B
:1001E000FFF7F2FF03BC01F09BF9000001F02EF9CC
:1001F0004FF4A06001F0D8FF01F0ACF800F0CCF9AA
:1002000000F0E4F900F046FA00F0ECFC4FF47A70EC
:1002100001F059F900F08AF901F000F810A200216C
:10022000084601F0EAF813A20121002001F0E5F8E8
:1002300015A20221002001F0E0F813A20321002002
:1002400001F0DBF801F0C7F809E000F0F5FC00F080
:1002500059FD00F0A8FD00F01AFE01F0BCF8F4E72B
:1002600043534D33374635382035304B44656D6F39
:1002700000000000202D2D2D2D2D2D2D2D2D2D2D6F
:100280002D2D2D20000000002D2D2D2D2D2D2D2D5F
:100290002D2D2D2D2D2D2D2D00000000704700BF80
:1002A000FEE700BFFEE700BFFEE700BFFEE77047C6
:1002B00070477047704710B501211F4802F069FF71
:1002C00088B101201D4908701D480078401C1C4958
:1002D0000870084600780A2801D100200870012122
:1002E000154802F067FF10BD10B54FF4805002F0C2
:1002F0002EF8F8B14FF48051124801F0C4FA0128E9
:1003000007D111480078012810D102200E49087049
:100310000CE04FF480510B4801F0B5FA30B90A48AF
:100320000078022802D10320074908704FF480505A
:1003300002F02DF810BD0000001000402E0000203B
:1003400000000020000C0140300000200CB500200F
:10035000019000906C48006840F480306A49086061
:1003600000BF6948006800F4003000900198401C0C
:100370000190009818B90198B0F5A06FF1D16248CA
:10038000006800F4003010B10120009001E000206E
:1003900000900098012843D15C48006840F01000AC
:1003A0005A4908600846006820F0030008600846C3
:1003B000006840F0020008605348406852494860B5
:1003C0000846406848600846406840F480604860DD
:1003D0000846406820F47C1048600846406840F4B5
:1003E000E81048600846006840F08070086000BF70
:1003F0004548006800F000700028F9D04248406885
:1004000020F00300404948600846406840F0020080
:10041000486000BF3C48406800F00C000828F9D153
:100420000CBD10B5FFF792FF10BD10B5364800683F
:1004300040F00100344908600846406834490840EB
:100440003149486008460068324908402E49086032
:100450000846006820F4802008600846406820F4C0
:10046000FE0048604FF41F008860FFF7DAFF4FF08E
:1004700000602949086010BD10B50021002000224D
:10048000214B5B6803F00C0121B1042906D0082937
:1004900028D107E0214B224C236027E01F4B204C42
:1004A000236023E0184B5B6803F47010164B5B6805
:1004B00003F48032022303EB904022B9194B4343EB
:1004C000174C23600DE0104B5B6803F4003323B13D
:1004D000144B4343124C236003E0104B4343104C36
:1004E000236003E00D4B0E4C236000BF00BF064BA2
:1004F0005B68C3F303130C4CE15C094B1B68CB40F6
:10050000074C236010BD0000001002400020024094
:100510000000FFF8FFFFF6FE08ED00E000127A0091
:100520000400002000093D00080000201FB5012143
:10053000092001F0D1FB28208DF8000000208DF863
:10054000010001208DF802008DF80300684601F0DB
:1005500030FE4FF48050ADF80C0048208DF80F00AD
:1005600003A90C4801F0FCF801F08CFE0C210120DD
:1005700001F00CFA4FF48050019000208DF8080033
:1005800010208DF8090001208DF80A0001A801F063
:1005900087FE1FBD000C014008B50121082001F0B5
:1005A0009BFB0320ADF8000010208DF80300032012
:1005B0008DF802006946044801F0D2F80321024890
:1005C00001F07DF908BD0000000C014008B50121D3
:1005D000402001F081FB8020ADF8000048208DF81C
:1005E00003006946264801F0BBF808BD10B580211C
:1005F000234801F048F930B92248007840F0010062
:100600002049087005E01F48007820F001001D49CE
:10061000087010BD1B4800781B490978884206D134
:100620001848007818B101201849087002E000202D
:10063000164908701348007813490870704710B5C0
:10064000044614B1012012490870FFF7CFFFFFF7ED
:10065000E1FF0F48007850B10C48007838B1002015
:100660000B49087007480078012806D110BD0548DD
:10067000007810B90120064908700020F6E7000054
:100680000018014018000020190000201A00002066
:100690001B00002008B50121082001F01DFB0021EE
:1006A0004FF4C00001F025FB4FF44060ADF80000AE
:1006B00014208DF8030003208DF802006946FA48E3
:1006C00001F04EF84FF48061F74801F0F6F84FF46E
:1006D0000061F54801F0F1F808BD08B54FF400607D
:1006E000ADF8000014208DF8030003208DF80200FF
:1006F0006946ED4801F034F84FF40061EA4801F032
:10070000DCF84FF48061E84801F0D7F8042000F0ED
:10071000B6FE4FF40061E44801F0B5F808B90120D5
:1007200008BD4FF40061E04801F0C9F8042000F072
:10073000A6FE4FF40061DC4801F0A5F808B10120E5
:10074000EEE74FF48061D84801F0B9F80020E7E700
:1007500008B54FF40060ADF8000014208DF80300D8
:1007600003208DF802006946CF4800F0F9FF4FF4EE
:100770008061CD4801F0A3F84FF40061CA4801F050
:100780009EF8042000F07BFE4FF48061C64801F023
:1007900094F8042000F073FE4FF40061C24801F0A9
:1007A0008CF8042000F06BFE08BD38B500244FF42F
:1007B0000060ADF8000048208DF803006946BA4893
:1007C00000F0CEFF4FF40061B74801F076F8012049
:1007D00000F055FE4FF48061B34801F06EF801203F
:1007E00000F04DFE0AE0601CC4B2012000F047FE9C
:1007F000FA2C03DDFFF7ACFF012038BD4FF4006198
:10080000A94801F040F80028EDD14FF48061A648D6
:1008100001F055F80020F0E708B54FF48061A248D8
:1008200001F04DF84FF40060ADF8000014208DF891
:10083000030003208DF8020069469B4800F090FFFA
:10084000022000F01CFE4FF40061974801F037F8D9
:10085000022000F014FE4FF48061934801F02DF85F
:10086000022000F00CFE4FF480618F4801F027F861
:10087000022000F004FE08BD08B54FF480618A48EC
:1008800001F01DF84FF40060ADF8000014208DF861
:10089000030003208DF802006946834800F060FFE2
:1008A000022000F0ECFD4FF400617F4801F005F8F4
:1008B000022000F0E4FD4FF480617B4800F0FDFF72
:1008C000022000F0DCFD4FF48061774800F0F7FF74
:1008D000022000F0D4FD08BD38B504464FF4006096
:1008E000ADF8000014208DF8030003208DF80200FD
:1008F00069466D4800F034FF4FF480616A4800F0AB
:10090000DEFF002523E0E00928B14FF400616648CE
:1009100000F0D3FF04E04FF40061634800F0CFFF24
:100920006006040E022000F0AAFD4FF480615E48CC
:1009300000F0C3FF022000F0A2FD4FF480615A488E
:1009400000F0BDFF022000F09AFD681CC5B2082D22
:10095000D9DB38BDF8B5054600244FF40060ADF88A
:10096000000048208DF8030069464F4800F0F8FE6B
:100970004FF480614C4800F0A2FF00261BE04FF4CA
:100980008061494800F09BFF022000F078FD4FF4A1
:100990008061454800F091FF6006040E4FF400614D
:1009A000414800F070FF08B1601CC4B2022000F0A2
:1009B00066FD701CC6B2082EE1DB15B9FFF72CFFEF
:1009C00001E0FFF759FF2046F8BD2DE9F04106464A
:1009D0000C46174698460025FFF77FFE33480078FF
:1009E00002280BD10020FFF777FFFFF7DEFE01287A
:1009F00001D1BDE8F0811E2000F041FD06F0FE00AF
:100A0000FFF76AFFFFF7D1FE012800D1F1E71E20B2
:100A100000F035FD2648007802280AD1200AFFF7A9
:100A20005BFFFFF7C2FE012800D1E2E71E2000F0C5
:100A300026FDE0B2FFF750FFFFF7B7FE012800D117
:100A4000D7E71E2000F01BFD00250CE0785DFFF7C6
:100A500043FFFFF7AAFE012800D1CAE71E2000F0DD
:100A60000EFD681C85B24545F0DBFFF771FE0020E6
:100A7000BFE72DE9F04104460D4616461F464FF0EC
:100A80000008FFF72AFE012801D1BDE8F0810748E0
:100A90000078022811D10020FFF71EFFFFF785FE26
:100AA000012807D1F1E70000000C01401E000020E2
:100AB000220000201E2000F0E2FC04F0FE00FFF700
:100AC0000BFFFFF772FE012800D1DEE71E2000F0C9
:100AD000D6FC4248007802280AD1280AFFF7FCFE1B
:100AE000FFF763FE012800D1CFE71E2000F0C7FC0E
:100AF000E8B2FFF7F1FEFFF758FE012800D1C4E786
:100B00001E2000F0BCFCFFF7E8FD35480078022805
:100B10000AD10020FFF7E0FEFFF747FE012800D1D1
:100B2000B3E71E2000F0ABFC04F0FE01481CFFF709
:100B3000D3FEFFF73AFE012800D1A6E71E2000F001
:100B40009EFC4FF000080BE00020FFF703FF06F8C3
:100B500008001E2000F093FC08F1010000F0FF08DF
:100B6000781E4045F0DC0120FFF7F4FE791E70543A
:100B70001E2000F084FCFFF7EBFD002085E710B598
:100B80000446FFF7AAFD012803D1FFF7E1FD01208C
:100B900010BD1348007802280DD10020FFF79CFEFD
:100BA000FFF703FE012803D1FFF7D2FD0120EFE795
:100BB0001E2000F064FC04F0FE00FFF78DFEFFF73E
:100BC000F4FD012803D1FFF7C3FD0120E0E71E205B
:100BD00000F055FCFFF7BCFD0020D9E72200002003
:100BE0001E00002008B50121082001F075F84FF41F
:100BF0000050ADF8000010208DF803006946FD4854
:100C000000F0AEFD4FF40051FA4800F056FE01210D
:100C1000402001F061F84FF40040ADF800001020D2
:100C20008DF803006946F44800F09AFD4FF4004146
:100C3000F14800F042FE08BD08B500200090EF48E2
:100C4000007800285CD0EE480078002858D1EB49A5
:100C50000870EC4908700C23EB4A41F24801A020CF
:100C6000FFF707FF40B90223E84A41F20101A02043
:100C7000FFF7FFFE00281DD0E5A20121002000F0B3
:100C8000BCFBE8A20221002000F0B7FBEAA203218E
:100C9000002000F0B2FB0020EC490870D849087031
:100CA00000BF0120EA4908600020EA49C1F8840138
:100CB00000BF08BD01236A4641F21001A020FFF7E2
:100CC000D8FE9DF80000C01178B19DF80000FF2803
:100CD0000BD00120CB490870DC48007820B9DEA297
:100CE0000321002000F089FB0AE00020C5490870BC
:100CF000D6490870C2490870DCA2032100F07DFBD0
:100D000000BFD6E738B5802000900024BD480078A9
:100D1000002847D0BA480078002843D1FFF78FFC5D
:100D20000446012C3ED10523D54A41F25801A020AA
:100D3000FFF74BFE0020C5490870B149087000BF9D
:100D4000C3490860C349C1F8840100BFB0A20121B2
:100D500000F053FBB3A20221002000F04EFBB1A231
:100D60000321002000F049FB01236A461903A0205B
:100D7000FFF72BFE18B90120A149087012E00120ED
:100D8000B249087000209E490870BEA2032100F0FD
:100D900034FB00BF0120AE4908600020AD49C1F816
:100DA000840100BF38BD08B59548007802286DD190
:100DB00001236A4641F21001A020FFF75AFE9DF878
:100DC0000000C0F3401028B1B3A20121002000F0C0
:100DD00014FB04E0B2A20121002000F00EFB9DF8FC
:100DE0000000C0F3001028B1AFA201210D2000F0D7
:100DF00004FB04E0ADA201210D2000F0FEFA9DF8F5
:100E00000000C0F3C00028B1A9A201210A2000F00F
:100E1000F4FA04E0A7A201210A2000F0EEFA9DF8FE
:100E20000000C0F3800028B1A3A20121042000F03B
:100E3000E4FA04E09FA20121042000F0DEFA9DF80C
:100E40000000C0F3400028B19CA20121072000F05F
:100E5000D4FA04E097A20121072000F0CEFA9DF811
:100E6000000000F0010088B195A20121084600F0C1
:100E7000C4FA00F0B0FA4FF47A7000F024FB94A2A8
:100E80000121084600F0B9FA00F0A5FA08BD2DE9E5
:100E9000F0438DB000200C9004200B90584800784F
:100EA000032879D101230CAA41F21101A020FFF7F8
:100EB000E0FD9DF8300000286FD101230BAA43F616
:100EC0005A71A020FFF781FD0A2000F0FCFA2023D0
:100ED000844A41F25811A020FFF7CBFD012816D11A
:100EE00055A20321002000F088FA0120574908701C
:100EF00000204349087000BF0120554908600020C8
:100F00005449C1F8840100BF0DB0BDE8F0830C2343
:100F1000754A41F2D801A020FFF7ABFD7149C97CA9
:100F2000704A927C01EB022003F04EFA06466F4AAB
:100F30006F4B03F061FA04460D466A49497E694ADF
:100F4000127E01EB022003F03FFA0646674A684B27
:100F500003F052FA804642460B4666A103A8CDE94B
:100F6000004502F02BF903AA0221002000F045FA07
:100F70005D48C07A5C49897A40EA012000905A486D
:100F8000C0795949897940EA01235748C0785649C0
:100F9000897840EA012201E0E3E016E05AA103A8C3
:100FA00002F00CF903AA0321002000F026FA012028
:100FB0002649087000201249087000BF24490860C3
:100FC00001202449C1F88401CBE001201F490870A9
:100FD00000200B49087000BF01201D490860002057
:100FE0001C49C1F8840100BF9DF83000C00900B160
:100FF00090E095E0000C0140001801402E00002018
:10100000300000202D000020540000202600002089
:10101000202D2D2D2D2D2D2D2D2D2D2D2D2D2D201A
:10102000000000002D2D2D2D2D2D2D2D2D2D2D2DA4
:101030002D2D2D2D00000000CDA8D1B6CAA7B0DC03
:101040002D2D2D2D2D2D2D2D000000002F000020E9
:101050008081214200802142C4A3BFE9BECDD0F7E8
:101060002D2D2D2D2D2D2D2D00000000B3F5CABCEA
:10107000BBAFD6D02D2D2D2D2D2D2D2D2D000000CB
:1010800028000020B7A2CBCDB2E2C1BFB4EDCEF3B1
:101090002D2D2D2D00000000204C482D00000000BB
:1010A000202D2D2D000000004C4C20002D2D200067
:1010B000524C2D002D2D2D0052482D0054522D0044
:1010C000202D2D2D2D2D2D2D2D2D2D2D2D2D200097
:1010D000204C482D52482D54522D52482D4C4C2016
:1010E000000000006C000020600000209A9999998F
:1010F0009999B93F4246523A252E316620504D3AD1
:10110000252E3166000000004F4B2125642D2564FB
:101110002D25640014A20321002000F06EF9F3E6EF
:101120009DF83000C0F3801028B114A203210020E4
:1011300000F063F9E8E69DF83000C0F3401028B1F4
:1011400013A20321002000F058F9DDE69DF83000DD
:10115000C0F3001028B113A20321002000F04DF9C4
:10116000D2E600BFD0E60000C4DAB6CCB4EDCEF3D0
:101170002D2D2D2D2D2D2D2D00000000CFC2CFDEC9
:10118000B4EDCEF32D2D2D2D2D2D2D2D0000000095
:10119000C9CFCFDEB4EDCEF32D2D2D2D2D2D2D2D40
:1011A00000000000D5BED7CBB4EDCEF32D2D2D2DF4
:1011B0002D2D2D2D0000000008B54FF4A06000F08B
:1011C000F3FF36208DF8000003208DF801008DF824
:1011D000020001208DF80300684600F0EAFF08BD18
:1011E0000EB50121102000F084FD6320ADF804004D
:1011F00041F61F40ADF8000069460B4801F0A4F924
:101200000121094801F0C2FF01221146064801F000
:1012100012FD0121044801F0F3FC0EBD10B5FFF7EB
:10122000CBFFFFF7DDFF10BD0010004030B513E02D
:1012300010F8013B7F4C645C7F4D05EB0414A35414
:10124000531CDBB21A460F2B06DD00224B1CDBB20F
:101250001946032B00DD30BD0378002BE8D100BF19
:10126000F9E770B500247548006820F07060734994
:1012700008607348006840F000607149086000250C
:1012800014E000206F490860012000F0F8F86006C3
:10129000040E6D48D0F8180108B1601CC4B20120DA
:1012A0006849086000F0EBF8681CC5B2082DE8DB5F
:1012B000204670BD70B5044600251AE00020614943
:1012C0000860012000F0DBF804F0800020B101206C
:1012D0005C49091D086003E000205A49091D0860A7
:1012E0006006040E01205749086000F0C8F8681C29
:1012F000C5B2082DE2DB0020524908605249C1F80E
:10130000980170BD70B504460E463046FFF7D2FF17
:10131000C82500BF2800A5F10105FBD104F0F000AD
:10132000FFF7C8FFC82500BF2800A5F10105FBD1C4
:101330002107080EFFF7BEFFC82500BF2800A5F152
:101340000105FBD170BD10B5202240213A4802F0C2
:101350000CF810BD08B50121042000F0BDFC602090
:10136000ADF8000010208DF8030003208DF8020076
:101370006946324800F0F4F90020324908603249E9
:10138000C1F89801962000F09EF8F8213020FFF770
:10139000B9FF052000F097F8F8213020FFF7B2FFE1
:1013A000052000F090F8F8210C20FFF7ABFF052096
:1013B00000F089F8F8210120FFF7A4FF052000F0D4
:1013C00082F8F8210620FFF79DFF052000F07BF84A
:1013D000FFF7B9FF08BD70B5174CF8218020FFF763
:1013E00091FF402506E014F8010BFA21FFF78AFF70
:1013F000681EC5B2002DF6D170BD70B504460E460C
:101400001546224631462846FFF710FF70BD70B5DD
:10141000FC213020FFF776FFFFF723FF0546FFF79B
:1014200020FF064605F0F00006F00F010844C4B2A4
:10143000204670BDF84500088C00002000080140DF
:1014400004180140940121420000214210B56FF0C0
:10145000040000F0F8FE2E4800682E49B0FBF1F0C1
:101460002D4908700846007800EB4001C1EBC01020
:101470004FF6FF7101EAC0002849088010BD0146FF
:10148000254A12784A434FF0E0235A6100229A61BC
:101490001A46126942F001021A6100BF4FF0E022C1
:1014A000106900F001021AB100F48032002AF5D070
:1014B0004FF0E022126922F001024FF0E0231A619E
:1014C00000229A6170470146144A12884A434FF03D
:1014D000E0235A6100229A611A46126942F0010221
:1014E0001A6100BF4FF0E022106900F001021AB14A
:1014F00000F48032002AF5D04FF0E022126922F089
:1015000001024FF0E0231A6100229A617047000047
:101510000400002000127A00320000203400002075
:10152000014600BF704700BF494A128802F04002DE
:10153000002AF9D0C2B2464B1B1D1A80704710B565
:1015400086B00446012144F2040000F0C5FB4FF4CC
:101550000070ADF8140003208DF8160018208DF8E7
:10156000170005A93B4800F0FBF84FF48060ADF888
:10157000140004208DF8170005A9364800F0F0F893
:1015800025208DF8000003208DF801008DF8020061
:1015900001208DF80300684600F00BFE0194002046
:1015A000ADF80800ADF80A00ADF80C00ADF8100079
:1015B0000C20ADF80E0001A9254800F034FC0122F2
:1015C00040F22551224800F0C6FC0121204800F0DD
:1015D000B6FC06B010BD10B540F225511C4800F015
:1015E0009FFD10B31A4800F01BFDC4B21A480088D2
:1015F00000F40040C8B91848008800F4804060B189
:101600000A2C03D000201449088020E012480088EA
:1016100040F400401049088019E00D2C06D10E4816
:10162000008840F480400C49088010E00A48008897
:10163000C0F30D0009490C5407480088401C0649B6
:10164000088008460088C72801DD0020088010BDFA
:1016500000380140000801403C000020CC00002080
:101660000948804709480047FEE7FEE7FEE7FEE736
:10167000FEE7FEE7FEE7FEE7FEE7FEE70448054972
:10168000054A064B704700002B0400083101000892
:10169000F8010020F8070020F8030020F8030020DC
:1016A00010B50446CC48844208D10121042000F042
:1016B0002DFB0021042000F029FB46E0C7488442AE
:1016C00008D10121082000F021FB0021082000F0B2
:1016D0001DFB3AE0C248844208D10121102000F0ED
:1016E00015FB0021102000F011FB2EE0BD488442C4
:1016F00008D10121202000F009FB0021202000F06A
:1017000005FB22E0B848844208D10121402000F0C6
:10171000FDFA0021402000F0F9FA16E0B3488442B7
:1017200008D10121802000F0F1FA0021802000F092
:10173000EDFA0AE0AE48844207D10121801500F09D
:10174000E5FA0021A01500F0E1FA10BD10B5012165
:10175000084600F0DBFA0021012000F0D7FA10BDA6
:101760002DE9F04102460025002600200023002438
:10177000002791F803C00CF00F0591F803C00CF09E
:10178000100CBCF1000F03D091F802C04CEA050523
:1017900091F800C0BCF1000F31D0146800202BE09C
:1017A0004FF0010C0CFA00F3B1F800C00CEA03068C
:1017B0009E4220D183004FF00F0C0CFA03F7BC437C
:1017C00005FA03FC4CEA040491F803C0BCF1280FAD
:1017D00006D14FF0010C0CFA00FCC2F814C00AE06C
:1017E00091F803C0BCF1480F05D14FF0010C0CFA81
:1017F00000FCC2F810C0401C0828D1D31460B1F816
:1018000000C0BCF1FF0F34DD546800202EE000F171
:10181000080C4FF0010808FA0CF3B1F800C00CEA0C
:1018200003069E4221D183004FF00F0C0CFA03F700
:10183000BC4305FA03FC4CEA040491F803C0BCF174
:10184000280F05D100F1080C08FA0CF8C2F8148032
:1018500091F803C0BCF1480F07D100F1080C4FF01C
:10186000010808FA0CF8C2F81080401C0828CED3F2
:101870005460BDE8F0814FF6FF7101800221817054
:101880000421C17070470246002093680B400BB1E1
:10189000012000E0002070470146886880B2704750
:1018A00002460020D3680B400BB1012000E000206D
:1018B00070470146C86880B2704701617047416156
:1018C00070470AB1016100E041617047C160704733
:1018D0004FF480320A438261816182618269826948
:1018E000704702460020434B18684FF6807318403B
:1018F00040EA021008433F4B186070473E49C861F8
:101900007047F0B50A46002300240021002500F0AE
:101910000046B6F1004F02D1364EF16901E0354E76
:101920007168C0F3034583B200F44016B6F5401F5A
:1019300008D121F070612F4E766826F070662D4F29
:101940007E6012E000F48016B6F5801F06D10326F3
:1019500006FA05F4A14341F0706106E0460D360138
:1019600003FA06F6B14341F0706122B1460D36012B
:1019700003FA06F6314300F00046B6F1004F02D1FB
:101980001C4EF16101E01B4E7160F0BD30B50022CC
:101990008B071C0F0F2303FA04F2164B08338C102D
:1019A00053F824309343134C08348D1044F82530F9
:1019B00023468C1053F824308C07240F00FA04F4CB
:1019C00023430C4C08348D1044F8253030BD0A49AF
:1019D000DC3108607047000000080140000C014045
:1019E000001001400014014000180140001C01409B
:1019F000002001400000014000002042DF48006854
:101A000040F00100DD49086008464068DC490840B4
:101A1000DA49486008460068DA490840D749086052
:101A20000846006820F4802008600846406820F4DA
:101A3000FE0048604FF41F0088607047CF49096876
:101A400021F48031CD4A11601146096821F48021CA
:101A50001160B0F5803F03D0B0F5802F0ED106E0C5
:101A6000C649096841F48031C44A116007E0C3499E
:101A7000096841F4A021C14A116000E000BF00BF25
:101A8000704710B501460022002300204A11012AA8
:101A900002D1BA4C236806E0022A02D1B74C236A6D
:101AA00001E0B64C636A01F01F02012494401C401F
:101AB0000CB1012000E0002010BD38B500200090DE
:101AC0000024002500BF3120FFF7DBFF054600980A
:101AD000401C00900098B0F5A06F01D0002DF2D00E
:101AE0003120FFF7CEFF08B1012400E0002420469A
:101AF00038BD01460020A14A106820F0F80040EAF5
:101B0000C10010607047A04908607047024600207D
:101B10009A4B586820F47C1042EA01031843974B13
:101B20005860704798490866704701460020934AFC
:101B3000506820F003000843506070478F484068A9
:101B400000F00C007047014600208C4A506820F0DD
:101B5000F00008435060704701460020874A5068F3
:101B600020F4E06008435060704701460020834A3B
:101B7000506820F4605040EAC1005060704729B1BD
:101B80007E4A527A02437D4B5A7204E07B4A527A73
:101B900082437A4B5A7270477B49D831086070474C
:101BA00001460020754A506820F4404008435060C8
:101BB00070470021714A20321170704A82F820105B
:101BC000012802D004280AD104E001216B4A203206
:101BD000117005E00521694A2032117000E000BF54
:101BE00000BF70476949086070476449096A01434A
:101BF000624A11627047654944390860704730B5E0
:101C000000210022002400235C4D6D6805F00C01CA
:101C100021B1042905D0082923D105E05C4D0560D8
:101C200022E05B4D05601FE0544D6D6805F47012B5
:101C3000524D6D6805F48034022505EB92421CB9C3
:101C4000544D554305600BE04C4D6D6805F400356F
:101C50001DB1504D5543056002E04D4D55430560A3
:101C600002E04B4D056000BF00BF444D6D6805F0BC
:101C7000F0010909484D6B5C0568DD4045603F4D4A
:101C80006D6805F4E061090A434D6B5C4568DD4011
:101C900085603A4D6D6805F46051C90A3E4D6B5C34
:101CA0004568DD40C560354D6D6805F44041890BE0
:101CB0003A4D6B5CC568B5FBF3F5056130BD29B1E4
:101CC0002E4A526902432D4B5A6104E02B4A526955
:101CD00082432A4B5A61704729B1284A92690243CC
:101CE000264B9A6104E0254A92698243234B9A610C
:101CF000704729B1214AD2690243204BDA6104E0DE
:101D00001E4AD26982431D4BDA61704729B11B4AD2
:101D1000D2680243194BDA6004E0184AD268824361
:101D2000164BDA60704729B1144A12690243134B0B
:101D30001A6104E0114A12698243104B1A6170471C
:101D400012494039086070470F49C86470470B4911
:101D5000C87170470948406A40F08070074948627E
:101D6000704701460020054A92680A400AB10120E6
:101D700000E000207047014988727047001002405F
:101D80000000FFF8FFFFF6FE0000424280044242DE
:101D900000127A0000093D003E0000204E000020A5
:101DA00010B50446FB48844209D101218803FFF79E
:101DB000ADFF00214FF48040FFF7A8FF32E0F64866
:101DC000844209D101214804FFF7ADFF00214FF4FF
:101DD0000030FFF7A8FF25E0F048844209D1012137
:101DE0008804FFF7A0FF00214FF48020FFF79BFF3E
:101DF00018E0EB48844209D10121C804FFF793FFA2
:101E000000214FF40020FFF78EFF0BE0E5488442ED
:101E100008D101210805FFF786FF00214FF480104B
:101E2000FFF781FF10BD2DE9F04786B005460E464D
:101E30000024A24600BFA1460027B08900B100BF20
:101E40002F462C8A4CF6FF700440F08804432C8205
:101E5000AC894EF6F3100440B0883189084371898B
:101E600008430443AC81AC8A4FF6FF400440B0897C
:101E70000443AC8201A8FFF7C2FEC648874202D1E4
:101E8000DDF810A001E0DDF80CA0A88900F4004006
:101E900040B10AEBCA0000EB0A1031684900B0FB00
:101EA000F1F807E00AEBCA0000EB0A10316889007C
:101EB000B0FBF1F86420B8FBF0F0040120096421C4
:101EC00001FB1089A88900F4004040B1322000EBEA
:101ED000C900B0FBF1F000F00700044308E0322035
:101EE00000EB09106421B0FBF1F000F00F00044397
:101EF0002C8106B0BDE8F0874FF416510160002137
:101F00008180C18001810C21418100218181704744
:101F100010B502460020108A4FF2FF0318400B88CC
:101F20004C8823438C882343CC8823431843108256
:101F300010BD0021018041808180C180704721B1A6
:101F4000828942F40052828104E082894DF6FF7357
:101F50001A4082817047F0B5034600240026002510
:101F6000002040F66A17B94200D100BF1846C1F3FD
:101F7000421401F01F06012707FA06F5012C01D1D2
:101F80000C3004E0022C01D1103000E014301AB102
:101F900007682F43076002E00768AF430760F0BDA2
:101FA0001AB1838A0B43838202E0838A8B43838244
:101FB0007047028A4FF6F0731A400282028A0A437F
:101FC0000282704782894FF2FF731A4082818289B0
:101FD0000A438281704721B1828942F002028281E4
:101FE00004E082894FF6FD731A4082817047028AAD
:101FF0004FF6DF731A400282028A0A430282704758
:1020000021B1028A42F48042028204E0028A4BF645
:10201000FF731A4002827047C1F308028280704742
:1020200001468888C0F308007047818941F00101AA
:1020300081817047028BD2B20283028B42EA012275
:1020400002837047028B02F47F420283028B0A43B1
:102050000283704721B1828A42F02002828204E02A
:10206000828A4FF6DF731A408282704721B1828ADA
:1020700042F01002828204E0828A4FF6EF731A4027
:102080008282704721B1828A42F00802828204E093
:10209000828A4FF6F7731A408282704721B1828993
:1020A00042F40042828103E08289C2F30E028281FF
:1020B000704721B1828A42F40062828204E0828AFF
:1020C0004FF2FF731A4082827047828A4FF6FB7389
:1020D0001A408282828A0A438282704721B1828AB0
:1020E00042F00202828204E0828A4FF6FD731A40B7
:1020F0008282704702460020B1F5007F00D100BF08
:1021000013880B400BB1012000E00020704701F460
:102110000072B2F5007F00D100BFCA430280704751
:1021200070B50246002400230025002040F66A1600
:10213000B14200D100BFC1F3421501F01F030126D7
:1021400006FA03F3012D02D19689334006E0022DF1
:1021500002D1168A334001E0968A33400C120126E0
:1021600006FA04F41688344013B10CB1012000E0E3
:10217000002070BD10B50022002340F66A14A14271
:1021800000D100BF0A1201249440A3B2DC430480B2
:1021900010BD0000003801400044004000480040ED
:1021A000004C00400050004031490143314A116069
:1021B000704770B5002100230F22C47804B32D4C62
:1021C000246804F4E064C4F5E064210AC1F1040366
:1021D000CA40447804FA03F1847814402143090189
:1021E000254C0678A155047804F01F050124AC4065
:1021F00005786D11AD0005F1E025C5F8004109E055
:10220000047804F01F050124AC401C4D06787611BB
:1022100045F8264070BD1A4A0A400243154B1B1F61
:102220001A60704739B1134A121D12680243114BEC
:102230001B1D1A6006E00F4A121D126882430D4BE7
:102240001B1D1A607047042808D14FF0E02109696E
:1022500041F004014FF0E022116107E04FF0E0216E
:10226000096921F004014FF0E0221161704700007C
:102270000000FA050CED00E000E400E080E100E081
:1022800080FFFF1F002044490860091D0860091DE8
:102290000860091D086041483F49143108607047D3
:1022A00000213D498279002A3AD00A461268036823
:1022B0009A430B461A600A1D126803689A430B1D65
:1022C0001A60027911440A6803681A430A60324AA4
:1022D0000832126803689A432F4B08331A601A1D9C
:1022E000126803689A432C4B0C331A604279102A07
:1022F0000ED11A1F126803681A43274B08331A605D
:102300001A1D126803681A43234B0C331A600DE040
:102310002149427911440A6803681A430A6005E0BA
:10232000027911440A6803689A430A6070470021E1
:10233000016001710C2141710021817170471649C2
:10234000103109680143144A103211607047014688
:102350000020114A143212680A400AB1012000E03C
:10236000002070470C491431086070470146002076
:102370000022094B1B6803EA0102074B14331B6858
:102380000B4013B10AB1012000E000207047024960
:10239000143108607047000000040140FFFF0F0087
:1023A00010B50446FE48844208D10121C014FFF74D
:1023B000ADFC0021E014FFF7A9FCC4E0B4F1804FAC
:1023C00008D101210846FFF7AEFC00210120FFF7EC
:1023D000AAFCB8E0F348844208D101210220FFF7AB
:1023E000A2FC00210220FFF79EFCACE0EE488442F4
:1023F00008D101210420FFF796FC00210420FFF7FB
:1024000092FCA0E0E948844208D101210820FFF7AE
:102410008AFC00210820FFF786FC94E0E44884420F
:1024200008D101211020FFF77EFC00211020FFF7CA
:102430007AFC88E0DF48844208D101212020FFF7A0
:1024400072FC00212020FFF76EFC7CE0DA48844219
:1024500008D101214014FFF759FC00216014FFF757
:1024600055FC70E0D548844209D10121C804FFF72A
:102470004DFC00214FF40020FFF748FC63E0D048FA
:10248000844209D101210805FFF740FC00214FF4E7
:102490008010FFF73BFC56E0CA48844209D1012175
:1024A0004805FFF733FC00214FF40010FFF72EFC26
:1024B00049E0C548844208D101214020FFF733FCA0
:1024C00000214020FFF72FFC3DE0C048844208D1A6
:1024D00001218020FFF727FC00218020FFF723FC4B
:1024E00031E0BB48844208D101218015FFF71BFC75
:1024F0000021A015FFF717FC25E0B648844209D15A
:1025000001210804FFF702FC00214FF48030FFF79F
:10251000FDFB18E0B048844209D101214804FFF7CF
:10252000F5FB00214FF40030FFF7F0FB0BE0AB4868
:10253000844208D101218804FFF7E8FB00214FF411
:102540008020FFF7E3FB10BD00220288944B9842E5
:102550000ED0994B98420BD0B0F1804F08D0914BE0
:10256000984205D0904B984202D0904B984204D1AB
:102570004FF68F731A404B881A438D4B984207D001
:102580008C4B984204D04FF6FF431A40CB881A4335
:1025900002808B8883850B880385814B98420BD002
:1025A000854B984208D08B4B984205D08A4B984275
:1025B00002D08A4B984201D10B7A03860123838291
:1025C000704770B5002400220023058C4FF6FE767C
:1025D00035400584028C8388048B4FF68F752C4020
:1025E000B51E2C400D882C43751E2A400D892A43A8
:1025F0004D882A436A4DA8420BD06F4DA84208D09F
:10260000744DA84205D0744DA84202D0734DA84223
:1026100013D14FF6F7752A404D892A434FF6FB75C3
:102620002A408D882A434FF6FF652B404FF6FF5511
:102630002B408D892B43CD892B4383800483CD8808
:102640008586028470BD70B5002400220023058CAD
:102650004FF6EF7635400584028C8388048B48F66C
:10266000FF752C404FF6FF452C400D884FF6FF7646
:1026700006EA05252C434FF6DF752A400D8906EA48
:1026800005152A434D8806EA05152A43444DA842FC
:1026900002D0494DA8421DD14FF67F752A404D8981
:1026A0004FF6FF7606EA05152A434FF6BF752A4016
:1026B0008D8806EA05152A434FF6FF352B404FF269
:1026C000FF752B408D8906EA85052B43CD8906EAE7
:1026D00085052B4383800483CD880587028470BDE4
:1026E00070B5002400220023058C4FF6FF663540AC
:1026F0000584028C8388848B4FF68F752C404FF6AF
:10270000FC752C400D882C434FF6FF552A400D894F
:102710004FF6FF7606EA05252A434D8806EA052589
:102720002A431F4DA84202D0234DA8421DD14FF28B
:10273000FF752A404D894FF6FF7606EA05252A43A4
:102740004FF6FF352A408D8806EA05252A434EF6C6
:10275000FF752B404DF6FF752B408D8906EA051558
:102760002B43CD8906EA05152B4383808483CD88CE
:102770008587028470BD70B5002200230024058C7B
:102780004EF6FF7635400584038C8488828B48F6AC
:10279000FF752A404FF6FF452A400D8820E00000D3
:1027A000002C01400004004000080040000C0040E4
:1027B000001000400014004000340140004C014073
:1027C000005001400054014000180040001C00402F
:1027D000002000400040014000440140004801400A
:1027E0004FF6FF7606EA05252A434DF6FF752B4086
:1027F0000D8906EA05352B434D8806EA05352B433E
:10280000FA4DA84202D0FA4DA84208D14BF6FF7506
:102810002C408D894FF6FF7606EA85152C4384807F
:102820008283CD88A0F84050038470BD828B4FF224
:10283000FF331A408283828B4FF6FF7303EA012332
:102840001A4382837047F0B50C46154600220021DA
:102850000026078C4EF6FF7C07EA0C070784828B64
:10286000018C4FF6FF7707EA043640F6FF473A40FF
:102870004FF6FF7707EA05273A434FF6FF7707EA57
:1028800003373A43D94FB8420ED0D94FB8420BD094
:10289000B0F1804F08D0D74FB84205D0D64FB842DC
:1028A00002D0D64FB84206D14DF6FF77394046F4F4
:1028B0008057394305E047F6FF57394044F48057C5
:1028C000394382830184F0BD828B4FF6F3731A4043
:1028D0008283828B0A4382837047F0B50C4615468B
:1028E000002200210026078C4FF6FF6C07EA0C0738
:1028F0000784828B018C4FF6FF7707EA04264FF698
:102900000C773A404FF6FF7707EA03172F433A4315
:10291000B64FB8420ED0B64FB8420BD0B0F1804F90
:1029200008D0B44FB84205D0B34FB84202D0B34F2D
:10293000B84206D14FF6FF57394046F48077394305
:1029400005E04FF2FF57394044F4807739438283E2
:102950000184F0BD028B4FF2FF331A400283028BD9
:102960004FF6FF7303EA01231A4302837047F0B561
:102970000C461546002200210026078C4FF6EF7CFE
:1029800007EA0C070784028B018C4FF6FF7707EAF2
:10299000041640F6FF473A404FF6FF7707EA033741
:1029A0003A434FF6FF7707EA05273A438F4FB8427D
:1029B0000ED08F4FB8420BD0B0F1804F08D08D4F62
:1029C000B84205D08C4FB84202D08C4FB84206D1E5
:1029D0004FF6DF77394046F01007394305E04FF6F0
:1029E0005F77394044F01007394302830184F0BD1A
:1029F000028B4FF6F3731A400283028B0A43028361
:102A00007047F0B50C46154600220021068C4FF6A3
:102A1000FE773E400684028B018C4FF60C763240E6
:102A20007E1C06EA03162E433243704EB0420ED08F
:102A30006F4EB0420BD0B0F1804F08D06D4EB04217
:102A400005D06D4EB04202D06C4EB04206D14FF66A
:102A5000FD76314044F00106314305E04FF6F5764E
:102A6000314044F00106314302830184F0BD70B56A
:102A700005460C465D4885420ED05D4885420BD028
:102A8000B5F1804F08D05B48854205D05A48854251
:102A900002D05A48854200D100E000BF208850B9DA
:102AA0002389A28861882846FFF7ABFFE188284682
:102AB000FFF79EFF25E0208804280AD12389A288F9
:102AC00061882846FFF753FFE1882846FFF742FF59
:102AD00017E0208808280AD12389A288618828461F
:102AE000FFF7FBFEE1882846FFF7EEFE09E02389A9
:102AF000A28861882846FFF7A6FEE1882846FFF7EE
:102B000095FE70BD2DE9F04105460C4600260127D3
:102B1000608808B9022600E00026A088012801D1BB
:102B2000022700E001272088A0B92389A2886188B4
:102B30002846FFF766FFE1882846FFF759FF2389FB
:102B40003A4631462846FFF712FFE1882846FFF74C
:102B500001FF13E02389A28861882846FFF707FF59
:102B6000E1882846FFF7F6FE23893A463146284693
:102B7000FFF747FFE1882846FFF73AFFBDE8F081FD
:102B80000A884B881A438B881A43CB881A430B89CF
:102B90001A434B891A438B891A43A0F84420704783
:102BA0004FF6FF71818000210180C1804180017258
:102BB00070470021018041808180C1800181418175
:102BC0008181C18170470021018041800121818084
:102BD0000021C180018170470021018041808180F6
:102BE000C18001814181818170470000002C01403A
:102BF000003401400004004000080040000C004088
:102C000021B1028842F00102028004E002884FF6FE
:102C1000FE731A400280704731B1B0F8442042F48C
:102C20000042A0F8442005E0B0F84420C2F30E02B0
:102C3000A0F8442070471AB183890B43838102E0D6
:102C400083898B43838170478182704741EA020305
:102C5000A0F8483070471AB183890B43838102E0A2
:102C600083898B438381704701894FF6F872114045
:102C7000018170470A46002101894FF68F73194080
:102C800011430181704730B504460D462946204660
:102C9000FFF7F0FF208940F00700208130BD2DE9CB
:102CA000F04104460D4616461F46602D06D13B46B0
:102CB000012231462046FFF75AFE05E03B4601223D
:102CC00031462046FFF79DFE29462046FFF7D2FFFA
:102CD000208940F007002081BDE8F08130B50C4626
:102CE00000210189C9B24FF6FF7505EA0325154396
:102CF00025432943018130BD2DE9F04105460E46AB
:102D000017469846002443463A4631462846FFF780
:102D1000E5FF2C894FF6F870044044F007044FF6A5
:102D20008F70044044F070042C81BDE8F081F0B550
:102D300004460D4616461F463B4632462946204667
:102D4000FFF7CCFF208940F480402081F0BD018551
:102D5000828270470A46002101884FF68F7319401E
:102D6000114301807047F0B50C4615461E46002100
:102D7000002200230189028B038C4FF6F87739403B
:102D800021434FF6FC473A4040F201173A434FF6D1
:102D9000DD773B404FF6FF7707EA06172F433B43AB
:102DA000018102830384F0BD0A460021018B4FF6A6
:102DB0008F7319401143018370470A460021018B2C
:102DC00048F6FF7319404FF6FF7303EA02231943D5
:102DD000018370470A460021818B4FF68F7319409B
:102DE0001143818370470A460021818B48F6FF73A7
:102DF00019404FF6FF7303EA02231943818370479A
:102E000021B1028842F08002028004E002884FF67D
:102E10007F731A400280704721B1828842F0040219
:102E2000828004E082884FF6FB731A4082807047EC
:102E300021B1828842F00802828004E082884FF645
:102E4000F7731A408280704721B1828842F00102F4
:102E5000828004E082884FF6FE731A4082807047B9
:102E60000A460021018B4FF6F77319401143018385
:102E700070470A460021018B4FF2FF7319404FF64D
:102E8000FF7303EA02231943018370470A460021B6
:102E9000818B4FF6F77319401143818370470A46BF
:102EA0000021818B4FF2FF7319404FF6FF7303EA45
:102EB00002231943818370470A460021018B4FF694
:102EC000FB7319401143018370470A460021018BAF
:102ED0004FF6FF3319404FF6FF7303EA02231943FD
:102EE000018370470A460021818B4FF6FB7319401E
:102EF0001143818370470A460021818B4FF6FF33CF
:102F000019404FF6FF7303EA022319438183704788
:102F10000A460021018B4FF67F731940114301834C
:102F200070470A460021018BC1F30E014FF6FF7373
:102F300003EA02231943018370470A460021818B6B
:102F40004FF67F7319401143818370470A46002171
:102F5000818BC1F30E014FF6FF7303EA022319437D
:102F6000818370470A460021018C4FF6FD7319409A
:102F70001143018470470A460021018C4FF6F77314
:102F800019401143018470470A460021018C4FF615
:102F9000DF7319404FF6FF7303EA021319430184EC
:102FA00070470A460021018C4FF67F7319404FF697
:102FB000FF7303EA02131943018470470A46002194
:102FC000018C4FF6FF5319404FF6FF7303EA0223BB
:102FD0001943018470470A460021018C4FF2FF73A8
:102FE00019404FF6FF7303EA022319430184704727
:102FF0000A460021018C4DF6FF7319404FF6FF730E
:1030000003EA023319430184704730B500230124D9
:103010008C40A3B2048C9C430484048C02FA01F516
:10302000ADB22C43048430BD30B5002304248C4061
:10303000A3B2048C9C430484048C02FA01F5ADB263
:103040002C43048430BD70B503460020002418468C
:10305000183001258D40ACB21D8CA5431D8409B1EB
:10306000082909D100EB6100056825F070050560AD
:103070000568154305600EE00D1FC5F34E05284495
:10308000056825F4E045056005684FF6FF7606EA19
:1030900002263543056070BD21B1028842F002026C
:1030A000028004E002884FF6FD731A4002807047E8
:1030B00021B1028842F00402028004E002884FF647
:1030C000FB731A400280704721B1828842F080026F
:1030D000828004E082884FF67F731A4082807047B6
:1030E00002884FF6F7731A40028002880A43028072
:1030F000704782884FF68F731A40828082880A4315
:103100008280704702894FF6F8731A400281028963
:103110000A430281704702894FF67F731A40028189
:1031200002890A4302817047818470478185704714
:10313000818670470187704781877047A0F84010EB
:10314000704702884FF6FF431A40028002880A4304
:10315000028070470146888E70470146088F70478D
:103160000146888F70470146B1F84000704701461C
:10317000888C70470146088D704702460020138AEC
:103180000B400BB1012000E000207047CA430282CF
:10319000704730B50246002000230024158A05EA56
:1031A0000103958905EA010413B10CB1012000E087
:1031B000002030BDCA430282704770470FB41CB56F
:1031C000074B06AA7B4469460090059800F045FB32
:1031D0000020694600F054FB1CBC5DF814FB0000A5
:1031E000B90600002DE9F041064600241068752953
:1031F000314616A510D0AFF30080002802DA404215
:1032000013A507E031688A0701D512A502E0490736
:1032100004D511A5012401E0AFF3008000210A22AA
:1032200006F1240709E0B0FBF2FCB0FBF2F302FB6D
:103230001C00303078541846491C0028F3D123462E
:103240002A463046BDE8F04100F09BB8000000007F
:103250002D0000002B000000200000002DE9F047A9
:103260004FF0000A89460446C0F820A02046E168D5
:103270008847002876D0252806D0D4E90121904738
:10328000206A401C2062F1E7E1682046002588475B
:10329000C4F81CA006460027C4F818A02A2E09D09E
:1032A000304601F074F838B304EB8708303EC8F8B4
:1032B000186019E059F8041B204604EB870291615D
:1032C000E1688847012F064618D1E069002820DA16
:1032D00025F020051DE0D8F8180000EB800006EB73
:1032E00040003038C8F818002046E1688847064694
:1032F00001F04DF80028EED1012F0AD02E2E08D172
:103300002046E16888477F1C0646022F45F02005CD
:10331000C4DBA069002803DA404245F00105A06142
:10332000E80701D025F01005B6B1A6F14100192833
:1033300002D8203645F400654A46314620462560CD
:103340004D46FCF72FFF58B1012806D0ED1D25F0A2
:10335000070000F1080989E704E005F1040985E7A1
:1033600030468AE7206ABDE8F08702F0FF0343EAAF
:10337000032242EA024200F08ABA7047704770475F
:1033800070472DE9F0470D4699469246044600F1F4
:1033900024080168880604D5E06921F01001216045
:1033A00000E00120A84201DD471B00E00027A169E1
:1033B0007A1902EB0900081AA0612078C00602D42D
:1033C0002046AFF30080002608E0D4E901211AF876
:1033D00006009047206A401C761C20624E45F4DBB4
:1033E0002078C0060AD52046AFF3008006E0D4E975
:1033F000012130209047206A401C2062381EA7F12E
:103400000107F4DC07E0D4E9012118F80500904732
:10341000206A401C2062281EA5F10105F3DC20462D
:10342000AFF300802078000602D50220BDE8F087C7
:103430000120FBE770472DE9FF4F0C461E464FF079
:10344000FF378BB0D2E90001DDF860800A908A4630
:10345000C1F30A5505B93D46002108464FF000006A
:10346000BAF1000F00F4400005DA00EB80004FF4E1
:10347000400101EA50004FEA9059B9F1010F00DD17
:10348000B9460A9850EA4A000ED044F61050A5F208
:10349000FF3545432F14B8F1000F1ED07542291E89
:1034A0001EDDC9F100021CE0B8F1010F4FF0000071
:1034B00001D0302103E0F24305E02154401CB0422A
:1034C000FBDB30460022002121540B99C1F8088013
:1034D000C1E900200FB0BDE8F08FBD1B6D1CDEE719
:1034E0004A4600DA694206A800F07CFA06AB93E887
:1034F000070003AB83E8070050460A9900F078FB09
:103500008DE80700A0F500501F3800900398002DAB
:1035100009DD42F21F014A46084403A903906846A8
:1035200000F0D7FD08E0A0F500504A461F3803A977
:103530000390684600F0E1FD8DE807000004000CF0
:1035400003D04FF0FF30410800E01046B8F1000F03
:1035500003D00022009215461EE0751E05D400F02F
:10356000BBF9303262556D1EF9D5B34601220843CE
:1035700002D000227F1C04E02078302801D10022F4
:103580007F1E002A099786D01DE0112D07DA00F072
:10359000A3F9303262556D1C50EA0102F5D108439F
:1035A00002D00098C8B10EE00021681E05E0235C3F
:1035B000625C63542254401E491C8142F7DBAB46D7
:1035C000A81B401E0990002004F80B000B98099AD4
:1035D000C0F80880C0E9002B7CE711264FF00008F6
:1035E00059E72DE9F04F88460446D21D22F0070125
:1035F00091B0D1E90001CDE90A0100F0B4FE024624
:103600000B98C00F01D02D2007E02068810701D55D
:103610002B2002E0202101EAC000032A099001D0FA
:10362000072A05DB03464146204600F09BF90BE1E3
:103630002078800601D5E06900E00620B8F1650F2A
:10364000814606D0B8F1660F18D0B8F1670F70D177
:1036500031E00020B9F1110F009001DB112301E0EE
:1036600009F101030AAA01A90CA8FFF7E4FEDDE9AC
:103670000C70002609F10105834647E001204B4606
:1036800000904FF000470AAA01A90CA8FFF7D3FE4B
:10369000DDE90DB00C995D46002610B909F1010075
:1036A0000D18B9EB050003D4C0F1FF3609F101058F
:1036B000A5EB09002BE0B9F1010F01DA4FF0010988
:1036C0000020B9F1110F0090484601DD112300E000
:1036D00003460AAA01A90CA8FFF7ADFEDDE90C70AC
:1036E0004D4600268346207800070AD4AB4500DA11
:1036F0005D4601A8012D04DD411911F8011C302996
:1037000007D04F4502DA17F1040F04DA0120824690
:103710000FE06D1EEEE7002F02DCED1B3E4403E0E0
:10372000781CA84200DD7D1CB81B00F1010A4FF097
:1037300000472078000703D4AA4501DB4FF0FF3A89
:103740000021B7F1004F0DF143088DF8431024D04C
:1037500002202B23002F01DA7F422D230A21021E93
:10376000A0F1010000DC5FB197FBF1FC97FBF1F2E7
:1037700001FB1C7C17460CF1300C08F801CDEEE77C
:10378000A8F1010003702188090501D5452100E059
:103790006521A0F1010800F8011C09980FA9A1EB0F
:1037A0000807FF1D00B10120411901EBEA70A16972
:1037B0003844081A401EA0612078C00602D4204672
:1037C000AFF30080099828B1D4E901219047206A1D
:1037D000401C20622078C00622D52046AFF300802E
:1037E0001EE0002E04DBB34502DD01A8805D00E091
:1037F0003020D4E901219047206A401C2062761CC9
:10380000AAF101005FEA000A0AD100F061F8C0687D
:103810000168405CD4E901219047206A401C206285
:10382000281EA5F10105DCDC07E0D4E9012118F828
:10383000010B9047206A401C2062381EA7F1010747
:10384000F3DC2046AFF30080032011B043E6000014
:1038500001694A1C02610878704700B58FB0CDE954
:1038600001310021059105497944CDE90310114644
:103870006846FFF7F3FC0FB000BD0000E5FFFFFF57
:103880000A6802F8010B0A6070474FF00002042931
:10389000C0F0128010F0030C00F01481CCF1040C85
:1038A000BCF1020F18BF00F8012BA8BF20F8022BB3
:1038B000A1EB0C0100F006B95FEAC17C24BF00F85F
:1038C000012B00F8012B48BF00F8012B70470000C6
:1038D00000487047B401002030B5B0F10A024FEA49
:1038E000900E71F100034EEA817EB0EB0E0061EBA9
:1038F00091014FEA101E4EEA017E10EB0E0041EBE3
:1039000011114FEA102E4EEA016E10EB0E0041EB42
:1039100011214FEA104E4EEA014E10EB0E0041EB22
:103920001141401841F100014FEAD00040EA4170D6
:103930004FEAD10110EB80054FEA810444EA90740C
:1039400044EB01046D1944EB0404521BA3414FF0F6
:10395000000348BF0A3200D530BD401C41F10001D0
:1039600030BD00002DE9F0411F46044603260168E2
:10397000072A01F4006004DB08B116A505E016A5CE
:1039800003E008B115A500E015A521F010002060A6
:10399000A069C01EA0610FB1401EA0612046AFF318
:1039A00000804FB1D4E9012138469047206A401C7D
:1039B0002062C01C206206E0206AFAE7D4E90121F7
:1039C00015F8010B9047761EF8D22046AFF3008021
:1039D000BDE8F0814E414E006E616E00494E4600DA
:1039E000696E66002DE9F047814616468AB0334875
:1039F00078440DC88DE80D0030487844801C03AC35
:103A00000DC884E80D0041F69B300844372190FB37
:103A1000F1F290FBF1F5A5F1800501FB12041B3CCE
:103A200002D56442012000E00020DFF890A080462B
:103A30000027FA44AAF1BE0A0DE0E00709D0324699
:103A4000684607EB47010AEB810100F056FB8DE861
:103A5000070064107F1C002CEFD1184F7F44AC3F4F
:103A600018E0E80714D007EB04100DF1180A90E8ED
:103A70000E008AE80E00C068F04201D19819089043
:103A8000324606A903A800F038FB03AB83E8070021
:103A90006D10641C002DE4D132466946B8F1000F68
:103AA00003A802D000F015FB01E000F026FBC9E9F5
:103AB0000001C9F808200AB0BDE8F087840C0000B6
:103AC0004FF0000200B5134694469646203922BFB7
:103AD000A0E80C50A0E80C50B1F12001BFF4F7AF02
:103AE000090728BFA0E80C5048BF0CC05DF804EBE4
:103AF000890028BF40F8042B08BF704748BF20F852
:103B0000022B11F0804F18BF00F8012B7047000006
:103B100000487047940100207546FFF7F9FFAE4654
:103B200005006946534620F00700854618B020B5C9
:103B3000FDF7A4FDBDE820404FF000064FF0000760
:103B40004FF000084FF0000B21F00701AC46ACE845
:103B5000C009ACE8C009ACE8C009ACE8C0098D46B2
:103B600070470446AFF300802046FCF738FB0000A6
:103B70004FF0013C50F8042B51F8043B9A4221D1FC
:103B8000A2EB0C03934313EACC1317D150F8042B88
:103B900051F8043B9A4215D1A2EB0C03934313EA6C
:103BA000CC130BD150F8042B51F8043B9A4209D1A5
:103BB000A2EB0C03934313EACC13DBD04FF00000CD
:103BC000704700BFD01A01BAB1FA81F101F01801B3
:103BD00022FA01F0CB40C1F12001DBB2C0B2C01A21
:103BE0002CFA01F3D11A914311EAC311E6D17047BF
:103BF0005FEA400C08BF91F0000F4FEA8C234FEAB8
:103C0000C12243EA51514FEA1C5018BF00F5F04061
:103C10004FEA300018BF41F000415FEA6C5C00F0F1
:103C20002980BCF1FF3F08BF40F080407047130C73
:103C300006BF12044FF0100C4FF0000C130E04BF1F
:103C400012020CF1080C130F04BF12010CF1040C4A
:103C5000930F04BF92000CF1020CD30F04BF52006B
:103C60000CF1010C11464FF00002A0F11F00A0EB77
:103C70000C00704711F0004F08BF704731F0004151
:103C80003FF4D5AF0B0C06BF09044FF0100C4FF0FA
:103C9000000C0B0E04BF09020CF1080C0B0F04BF43
:103CA00009010CF1040C8B0F04BF89000CF1020C0C
:103CB000CB0F04BF49000CF1010CCCF12003A0EBA9
:103CC0000C0022FA03F302FA0CF241EA030100F1BC
:103CD0000100704720F07F4C80EA030023F07F470B
:103CE000ACEB070303F57C5300F0004003F1FF0346
:103CF0002DE980494FEA154B09B44FEA144325EAF0
:103D00000B4E24EA03480FF2042606EB132749085A
:103D10003E785FEA320203FB0667C7F5000707FB40
:103D200006F64FEA54374FEAD64606F1020607FB7D
:103D3000066CCCF1005C4FEA1C472CEA074C07FBF1
:103D400006F40CFB06F504EB15464FEA961634BF55
:103D500000204FF000404FEAD13706FB07FC4FEA46
:103D60001C4C0CFB0BF7D21B03FB0CF761EB0701A0
:103D70000CFB0EF7B0EB074072EB17420CFB08F799
:103D800034BFA2EB0742B2EB074261EB17414FEAA7
:103D90000C444FEA910706FB07FC4FEA1C4C0CFB56
:103DA0000BF7B0EBC74072EB573203FB0CF734BF95
:103DB000A2EBC742B2EBC74261EB57310CFB0EF7E7
:103DC000B0EBC70072EB57720CFB08F734BFA2EBE5
:103DD000C702B2EBC70261EB5771039F4FEA8161E3
:103DE00041EA921104EBCC044FEAD1374FEA8262E8
:103DF00006FB07FC42EA90124FEA80604FEA1C4C37
:103E00000CFB0BF7D21B03FB0CF761EB07010CFB60
:103E10000EF7B0EB074072EB17420CFB08F734BF0C
:103E2000A2EB0742B2EB074261EB17414FEA8C5518
:103E30004FEA910704EB9C2406FB07FC4FEA1C4C5D
:103E40000CFB0BF7B0EBC74072EB573203FB0CF7E0
:103E500034BFA2EBC742B2EBC74261EB57310CFB58
:103E60000EF7B0EBC70072EB57720CFB08F734BFCC
:103E7000A2EBC702B2EBC70261EB577115EB4C2501
:103E80004FEA816141EA92114FEA82624FEAD137EB
:103E900042EA901206FB07FC44F100044FEA8060FE
:103EA0004FEA1C4C0CFB0BF7D21B03FB0CF761EB2E
:103EB00007010CFB0EF7B0EB074072EB17420CFB4F
:103EC00008F734BFA2EB0742B2EB074261EB1741A0
:103ED00015EB1C154FEA813141EA92414FEA8232DB
:103EE00042EA90424FEA80304FEA0C7644F10004F7
:103EF00048EA03434EEA0B484FF0000EB2EB080CC1
:103F000071EB030724BF624639464EEB0E0E4FF0AD
:103F1000000B0018524149414BEB0B0BB2EB080C64
:103F200071EB03077BF1000B24BF624639464EEB71
:103F30000E0E4FF0000B0018524149414BEB0B0B9A
:103F4000B2EB080C71EB03077BF1000B24BF624658
:103F500039464EEB0E0E51EA020718BF46F0010635
:103F600016EB0E7655F1000254F1000103D5BDE8C1
:103F70008901BDE80088BDE88901BDE80048B6199F
:103F8000524141EB0101A3F10103704780807F7E24
:103F90007D7C7B7A797877767675747372717170BF
:103FA0006F6E6E6D6C6C6B6A6A6968686766666571
:103FB0006464636362616160605F5F5E5E5D5D5CFF
:103FC0005C5B5B5A5A595958585757565655555570
:103FD0005454535352525251515050504F4F4F4ED0
:103FE0004E4D4D4D4C4C4C4B4B4B4A4A4A4949491E
:103FF0004848484747474746464645454544444460
:10400000444343434342424242414141002B26D470
:10401000770021D01CB54FEA370703B44FF01000EA
:104020004FF010014FF000000FBCBDE810400BF145
:10403000010BBBF1010F08BF5FEA170722BF12F1A6
:10404000010211F101014FF0004143F1000300F0C2
:10405000004043EA00007047F9D35708DAE746EA20
:10406000064613F1400F4FEA16461FDD13F1200FED
:10407000DFBF16430A46002120335B42C8D0C3F19C
:10408000200746EA064602FA07F74FEA164646EACE
:104090000706C3F1200722FA03F201FA07F721FA13
:1040A00003F14FF0000342EA0702B1E746EA0206D5
:1040B00046EA06464FEA164646EA0106BCBF46EA0D
:1040C0000646360C4FF000034FF000024FF000019F
:1040D0009EE72DE9C048934630B491E8380007C800
:1040E00031EA400C48BF34EA430C03D5FFF7F2FD38
:1040F000FFF78CFFF0BCBDE800882DE9C04893466F
:1041000030B491E8380007C810F0804F08BF13F0B2
:10411000804F03D100F005F8FFF778FFF0BCBDE851
:10412000008820F07F4780EA030023F07F4C07EBF4
:104130000C03A3F57C5300F00040A3F1FE0392F0C2
:10414000000F00F0B38095F0000F00F077802DE9AC
:1041500001494FEA11404FEA144621EA004800FBAA
:1041600006FC24EA064708FB06F607FB08F800FBF6
:1041700007F718EB06484CEB164C4FEA124B18EBBE
:1041800007484FEA15464CEB174022EA0B4E0BFB53
:1041900006FC25EA06470EFB06F607FB0EFE0BFBA8
:1041A00007F71EEB064E4CEB164C4FF000061EEBCD
:1041B000074E4CEB174B18EB0B0840F1000018EBC7
:1041C0000E0B58EB000840F100008F1A4FF0000171
:1041D0003CBFC943661B14BFB5EB040C00213CBFB8
:1041E000C943F61B4FEA17444EEA8E0E27EA0445F0
:1041F0004FEA1C4704FB07622CEA074C05FB07F754
:104200000CFB05F604FB0CFC16EB074642EB1742D1
:1042100016EB0C4642EB1C421BEB060658EB020267
:10422000414146EA9E0601D5BDE80189B6195241D1
:1042300041EB0101A3F10103BDE801894FEA1445F7
:104240004FEA114724EA054621EA074C05FB07F42B
:1042500006FB07F70CFB06F105FB0CFC11EB074115
:1042600044EB17444FEA124711EB0C4144EB1C445A
:1042700022EA074C05FB07F206FB07F70CFB06F6E4
:1042800005FB0CFC16EB074642EB174216EB0C46FF
:1042900042EB1C456A1854F1000148BF7047B6193B
:1042A000524141EB0101A3F10103704795F0000F6A
:1042B00037D04FEA11424FEA144721EA024624EA76
:1042C000074C02FB07F106FB07F70CFB06F402FBA9
:1042D0000CFC14EB074441EB17414FEA154714EB74
:1042E0000C4441EB1C4125EA074C02FB07F506FB99
:1042F00007F70CFB06F602FB0CFC16EB074645EB3A
:10430000174516EB0C4645EB1C42121951F1000102
:1043100048BF7047B619524141EB0101A3F10103B7
:1043200070474FEA14454FEA114724EA054621EA4F
:10433000074C05FB07F106FB07F70CFB06F24FF0F5
:10434000000605FB0CFC12EB074241EB174112EB98
:104350000C4251EB1C4148BF7047921841EB0101E0
:10436000A3F101037047490050EAC12018BF04209F
:104370004A0D18BF40F0010040F2FF72B2EB515FEE
:1043800008BF40F00200012808BF05207047303800
:104390000A2801D2012070470020704710B500297B
:1043A0000AD00878002807D005487844FFF7E0FBDA
:1043B000002801D0002010BD0248784410BD000044
:1043C00006030000FE02000010F0004248BF404219
:1043D000B0FA80F310FA03F10AD0C3F11D0303F51C
:1043E00080634FEA415002EB035202EBD121704748
:1043F0004FF0000070470000DFF848C170B51CEABC
:10440000111E1EBF1CEA13159EEA0C0F95EA0C0F35
:1044100000F06F8081EA030423EA4C134EEAD47E55
:1044200021EA4C1141F4801143F48013AE44A1FB06
:10443000024CA0FB0365AEF17F7E361955EB0C05EF
:10444000A1FB034C4CF10003A0FB021C16EB0C0675
:10445000654153F10003094218BF46F0010613F409
:10446000007F0BD14FEA03314FEA0530340341EAB4
:10447000155140EA16506FF003020AE04FEAC321DB
:104480004FEAC520F40241EA555140EA56506FF018
:10449000020202EB2E4201EB025585EACE710AD0F0
:1044A0005FEA440C18BF24F0004450F1000041F1D1
:1044B000000120EAD47040F2FE7C624500D270BD5B
:1044C000A84214BF4FF080444FF04044002E08BF74
:1044D0000024BEF1806FA8BFA1F1C041BDE87040CB
:1044E00080F282804FF0000001F1C04101F00041F4
:1044F00070479EEA0C0F0CEA131518BF95EA0C0FD3
:1045000006D04FF0000081EA030E0EF0004170BDAE
:1045100000F01CF88900013E00F007B800F009B86F
:104520004FEA430C5FEA5C5C08D081EA030100F0CB
:104530005BB84FEA410C5FEA5C5CF6D14FF00000DB
:10454000014970470000FF070000F87F0EF1020EDE
:104550002EF0030E5EF8046B364205D4012A43EBBD
:10456000030515F5001F12D8012841EB010C1CF5BD
:10457000001F0CD80ED14FEAD17C15F5001F0CEBB3
:104580004C0C0CF1020C08BF4CEBD37C04E04FF058
:10459000080C01E04FEAD37C0CEB4C0526FA05F63B
:1045A00006F00706B6F1040C06D20EEB860CBDE849
:1045B00070404CF0010C6047DFE80CF0090B020280
:1045C0004FF000414FF00000A1F5002170BD1946E9
:1045D0001046012851EB010418BFD4F5001484BF24
:1045E000002001F0004170BD0808A0F500114FEA5D
:1045F00031017047FEF7F5BF0002010302400000E1
:10460000000000A00000000005400000000000C8FD
:10461000000000000C4000000000409C0000000072
:10462000194000000020BCBE000000003440000023
:10463000BFC91B8E00000004B5400000504BCFD016
:104640006607E2CF010000006C4100003E8251AAE3
:10465000DFEEA73401000000D9420000DCB5A0E283
:104660003A301F97FFFFFFFFB4450000FD25A0C8AB
:10467000E9A3C14FFFFFFFFFFF3F000000000080E4
:1046800000000000FF3F000000000080000000006C
:10469000CC46000800000020540000006C01000817
:1046A0002047000854000020A407000088010008EB
:1046B0001C00000043000000F8FFFFFF0C0000009A
:1046C0000E0000000F0000002E000000000000009F
:1046D00000A24A04000000000000000001020304E0
:1046E00006070809000000010000010000000200A8
:1046F0000000000002C1AA9E0000000000000000AF
:1047000000000000000000000000000000000102A6
:104710000304010203040607080902040608000056
:0400000508000131BD
:00000001FF
